{"abi":[{"inputs":[{"internalType":"uint256","name":"minimum","type":"uint256"}],"name":"createCampaign","outputs":[],"stateMutability":"nonpayable","type":"function"},{"inputs":[{"internalType":"uint256","name":"","type":"uint256"}],"name":"deployedContracts","outputs":[{"internalType":"address","name":"","type":"address"}],"stateMutability":"view","type":"function"},{"inputs":[],"name":"getDeployedCampaigns","outputs":[{"internalType":"address[]","name":"","type":"address[]"}],"stateMutability":"view","type":"function"}],"devdoc":{"kind":"dev","methods":{},"version":1},"evm":{"assembly":"    /* \"Campaign.sol\":61:438  contract CampaignFactory {... */\n  mstore(0x40, 0x80)\n  callvalue\n  dup1\n  iszero\n  tag_1\n  jumpi\n  0x00\n  dup1\n  revert\ntag_1:\n  pop\n  dataSize(sub_0)\n  dup1\n  dataOffset(sub_0)\n  0x00\n  codecopy\n  0x00\n  return\nstop\n\nsub_0: assembly {\n        /* \"Campaign.sol\":61:438  contract CampaignFactory {... */\n      mstore(0x40, 0x80)\n      callvalue\n      dup1\n      iszero\n      tag_1\n      jumpi\n      0x00\n      dup1\n      revert\n    tag_1:\n      pop\n      jumpi(tag_2, lt(calldatasize, 0x04))\n      shr(0xe0, calldataload(0x00))\n      dup1\n      0x4acb9d4f\n      eq\n      tag_3\n      jumpi\n      dup1\n      0x9ad1ee10\n      eq\n      tag_4\n      jumpi\n      dup1\n      0xa3303a75\n      eq\n      tag_5\n      jumpi\n    tag_2:\n      0x00\n      dup1\n      revert\n        /* \"Campaign.sol\":321:435  function getDeployedCampaigns() public view returns (address[] memory) {... */\n    tag_3:\n      tag_6\n      tag_7\n      jump\t// in\n    tag_6:\n      mload(0x40)\n      tag_8\n      swap2\n      swap1\n      tag_9\n      jump\t// in\n    tag_8:\n      mload(0x40)\n      dup1\n      swap2\n      sub\n      swap1\n      return\n        /* \"Campaign.sol\":93:127  address[] public deployedContracts */\n    tag_4:\n      tag_10\n      0x04\n      dup1\n      calldatasize\n      sub\n      dup2\n      add\n      swap1\n      tag_11\n      swap2\n      swap1\n      tag_12\n      jump\t// in\n    tag_11:\n      tag_13\n      jump\t// in\n    tag_10:\n      mload(0x40)\n      tag_14\n      swap2\n      swap1\n      tag_15\n      jump\t// in\n    tag_14:\n      mload(0x40)\n      dup1\n      swap2\n      sub\n      swap1\n      return\n        /* \"Campaign.sol\":136:313  function createCampaign(uint256 minimum) public {... */\n    tag_5:\n      tag_16\n      0x04\n      dup1\n      calldatasize\n      sub\n      dup2\n      add\n      swap1\n      tag_17\n      swap2\n      swap1\n      tag_12\n      jump\t// in\n    tag_17:\n      tag_18\n      jump\t// in\n    tag_16:\n      stop\n        /* \"Campaign.sol\":321:435  function getDeployedCampaigns() public view returns (address[] memory) {... */\n    tag_7:\n        /* \"Campaign.sol\":374:390  address[] memory */\n      0x60\n        /* \"Campaign.sol\":410:427  deployedContracts */\n      0x00\n        /* \"Campaign.sol\":403:427  return deployedContracts */\n      dup1\n      sload\n      dup1\n      0x20\n      mul\n      0x20\n      add\n      mload(0x40)\n      swap1\n      dup2\n      add\n      0x40\n      mstore\n      dup1\n      swap3\n      swap2\n      swap1\n      dup2\n      dup2\n      mstore\n      0x20\n      add\n      dup3\n      dup1\n      sload\n      dup1\n      iszero\n      tag_20\n      jumpi\n      0x20\n      mul\n      dup3\n      add\n      swap2\n      swap1\n      0x00\n      mstore\n      keccak256(0x00, 0x20)\n      swap1\n    tag_21:\n      dup2\n      0x00\n      swap1\n      sload\n      swap1\n      0x0100\n      exp\n      swap1\n      div\n      0xffffffffffffffffffffffffffffffffffffffff\n      and\n      0xffffffffffffffffffffffffffffffffffffffff\n      and\n      dup2\n      mstore\n      0x20\n      add\n      swap1\n      0x01\n      add\n      swap1\n      dup1\n      dup4\n      gt\n      tag_21\n      jumpi\n    tag_20:\n      pop\n      pop\n      pop\n      pop\n      pop\n      swap1\n      pop\n        /* \"Campaign.sol\":321:435  function getDeployedCampaigns() public view returns (address[] memory) {... */\n      swap1\n      jump\t// out\n        /* \"Campaign.sol\":93:127  address[] public deployedContracts */\n    tag_13:\n      0x00\n      dup2\n      dup2\n      sload\n      dup2\n      lt\n      tag_22\n      jumpi\n      0x00\n      dup1\n      revert\n    tag_22:\n      swap1\n      0x00\n      mstore\n      keccak256(0x00, 0x20)\n      add\n      0x00\n      swap2\n      pop\n      sload\n      swap1\n      0x0100\n      exp\n      swap1\n      div\n      0xffffffffffffffffffffffffffffffffffffffff\n      and\n      dup2\n      jump\t// out\n        /* \"Campaign.sol\":136:313  function createCampaign(uint256 minimum) public {... */\n    tag_18:\n        /* \"Campaign.sol\":195:214  address newCampaign */\n      0x00\n        /* \"Campaign.sol\":238:245  minimum */\n      dup2\n        /* \"Campaign.sol\":247:257  msg.sender */\n      caller\n        /* \"Campaign.sol\":225:258  new Campaign(minimum, msg.sender) */\n      mload(0x40)\n      tag_25\n      swap1\n      tag_26\n      jump\t// in\n    tag_25:\n      tag_27\n      swap3\n      swap2\n      swap1\n      tag_28\n      jump\t// in\n    tag_27:\n      mload(0x40)\n      dup1\n      swap2\n      sub\n      swap1\n      0x00\n      create\n      dup1\n      iszero\n      dup1\n      iszero\n      tag_29\n      jumpi\n      returndatasize\n      0x00\n      dup1\n      returndatacopy\n      revert(0x00, returndatasize)\n    tag_29:\n      pop\n        /* \"Campaign.sol\":195:259  address newCampaign = address(new Campaign(minimum, msg.sender)) */\n      swap1\n      pop\n        /* \"Campaign.sol\":270:287  deployedContracts */\n      0x00\n        /* \"Campaign.sol\":293:304  newCampaign */\n      dup2\n        /* \"Campaign.sol\":270:305  deployedContracts.push(newCampaign) */\n      swap1\n      dup1\n      0x01\n      dup2\n      sload\n      add\n      dup1\n      dup3\n      sstore\n      dup1\n      swap2\n      pop\n      pop\n      0x01\n      swap1\n      sub\n      swap1\n      0x00\n      mstore\n      keccak256(0x00, 0x20)\n      add\n      0x00\n      swap1\n      swap2\n      swap1\n      swap2\n      swap1\n      swap2\n      0x0100\n      exp\n      dup2\n      sload\n      dup2\n      0xffffffffffffffffffffffffffffffffffffffff\n      mul\n      not\n      and\n      swap1\n      dup4\n      0xffffffffffffffffffffffffffffffffffffffff\n      and\n      mul\n      or\n      swap1\n      sstore\n      pop\n        /* \"Campaign.sol\":184:313  {... */\n      pop\n        /* \"Campaign.sol\":136:313  function createCampaign(uint256 minimum) public {... */\n      pop\n      jump\t// out\n    tag_26:\n      dataSize(sub_0)\n      dup1\n      dataOffset(sub_0)\n      dup4\n      codecopy\n      add\n      swap1\n      jump\t// out\n        /* \"#utility.yul\":7:121   */\n    tag_31:\n        /* \"#utility.yul\":74:80   */\n      0x00\n        /* \"#utility.yul\":108:113   */\n      dup2\n        /* \"#utility.yul\":102:114   */\n      mload\n        /* \"#utility.yul\":92:114   */\n      swap1\n      pop\n        /* \"#utility.yul\":7:121   */\n      swap2\n      swap1\n      pop\n      jump\t// out\n        /* \"#utility.yul\":127:311   */\n    tag_32:\n        /* \"#utility.yul\":226:237   */\n      0x00\n        /* \"#utility.yul\":260:266   */\n      dup3\n        /* \"#utility.yul\":255:258   */\n      dup3\n        /* \"#utility.yul\":248:267   */\n      mstore\n        /* \"#utility.yul\":300:304   */\n      0x20\n        /* \"#utility.yul\":295:298   */\n      dup3\n        /* \"#utility.yul\":291:305   */\n      add\n        /* \"#utility.yul\":276:305   */\n      swap1\n      pop\n        /* \"#utility.yul\":127:311   */\n      swap3\n      swap2\n      pop\n      pop\n      jump\t// out\n        /* \"#utility.yul\":317:449   */\n    tag_33:\n        /* \"#utility.yul\":384:388   */\n      0x00\n        /* \"#utility.yul\":407:410   */\n      dup2\n        /* \"#utility.yul\":399:410   */\n      swap1\n      pop\n        /* \"#utility.yul\":437:441   */\n      0x20\n        /* \"#utility.yul\":432:435   */\n      dup3\n        /* \"#utility.yul\":428:442   */\n      add\n        /* \"#utility.yul\":420:442   */\n      swap1\n      pop\n        /* \"#utility.yul\":317:449   */\n      swap2\n      swap1\n      pop\n      jump\t// out\n        /* \"#utility.yul\":455:581   */\n    tag_34:\n        /* \"#utility.yul\":492:499   */\n      0x00\n        /* \"#utility.yul\":532:574   */\n      0xffffffffffffffffffffffffffffffffffffffff\n        /* \"#utility.yul\":525:530   */\n      dup3\n        /* \"#utility.yul\":521:575   */\n      and\n        /* \"#utility.yul\":510:575   */\n      swap1\n      pop\n        /* \"#utility.yul\":455:581   */\n      swap2\n      swap1\n      pop\n      jump\t// out\n        /* \"#utility.yul\":587:683   */\n    tag_35:\n        /* \"#utility.yul\":624:631   */\n      0x00\n        /* \"#utility.yul\":653:677   */\n      tag_54\n        /* \"#utility.yul\":671:676   */\n      dup3\n        /* \"#utility.yul\":653:677   */\n      tag_34\n      jump\t// in\n    tag_54:\n        /* \"#utility.yul\":642:677   */\n      swap1\n      pop\n        /* \"#utility.yul\":587:683   */\n      swap2\n      swap1\n      pop\n      jump\t// out\n        /* \"#utility.yul\":689:797   */\n    tag_36:\n        /* \"#utility.yul\":766:790   */\n      tag_56\n        /* \"#utility.yul\":784:789   */\n      dup2\n        /* \"#utility.yul\":766:790   */\n      tag_35\n      jump\t// in\n    tag_56:\n        /* \"#utility.yul\":761:764   */\n      dup3\n        /* \"#utility.yul\":754:791   */\n      mstore\n        /* \"#utility.yul\":689:797   */\n      pop\n      pop\n      jump\t// out\n        /* \"#utility.yul\":803:982   */\n    tag_37:\n        /* \"#utility.yul\":872:882   */\n      0x00\n        /* \"#utility.yul\":893:939   */\n      tag_58\n        /* \"#utility.yul\":935:938   */\n      dup4\n        /* \"#utility.yul\":927:933   */\n      dup4\n        /* \"#utility.yul\":893:939   */\n      tag_36\n      jump\t// in\n    tag_58:\n        /* \"#utility.yul\":971:975   */\n      0x20\n        /* \"#utility.yul\":966:969   */\n      dup4\n        /* \"#utility.yul\":962:976   */\n      add\n        /* \"#utility.yul\":948:976   */\n      swap1\n      pop\n        /* \"#utility.yul\":803:982   */\n      swap3\n      swap2\n      pop\n      pop\n      jump\t// out\n        /* \"#utility.yul\":988:1101   */\n    tag_38:\n        /* \"#utility.yul\":1058:1062   */\n      0x00\n        /* \"#utility.yul\":1090:1094   */\n      0x20\n        /* \"#utility.yul\":1085:1088   */\n      dup3\n        /* \"#utility.yul\":1081:1095   */\n      add\n        /* \"#utility.yul\":1073:1095   */\n      swap1\n      pop\n        /* \"#utility.yul\":988:1101   */\n      swap2\n      swap1\n      pop\n      jump\t// out\n        /* \"#utility.yul\":1137:1869   */\n    tag_39:\n        /* \"#utility.yul\":1256:1259   */\n      0x00\n        /* \"#utility.yul\":1285:1339   */\n      tag_61\n        /* \"#utility.yul\":1333:1338   */\n      dup3\n        /* \"#utility.yul\":1285:1339   */\n      tag_31\n      jump\t// in\n    tag_61:\n        /* \"#utility.yul\":1355:1441   */\n      tag_62\n        /* \"#utility.yul\":1434:1440   */\n      dup2\n        /* \"#utility.yul\":1429:1432   */\n      dup6\n        /* \"#utility.yul\":1355:1441   */\n      tag_32\n      jump\t// in\n    tag_62:\n        /* \"#utility.yul\":1348:1441   */\n      swap4\n      pop\n        /* \"#utility.yul\":1465:1521   */\n      tag_63\n        /* \"#utility.yul\":1515:1520   */\n      dup4\n        /* \"#utility.yul\":1465:1521   */\n      tag_33\n      jump\t// in\n    tag_63:\n        /* \"#utility.yul\":1544:1551   */\n      dup1\n        /* \"#utility.yul\":1575:1576   */\n      0x00\n        /* \"#utility.yul\":1560:1844   */\n    tag_64:\n        /* \"#utility.yul\":1585:1591   */\n      dup4\n        /* \"#utility.yul\":1582:1583   */\n      dup2\n        /* \"#utility.yul\":1579:1592   */\n      lt\n        /* \"#utility.yul\":1560:1844   */\n      iszero\n      tag_66\n      jumpi\n        /* \"#utility.yul\":1661:1667   */\n      dup2\n        /* \"#utility.yul\":1655:1668   */\n      mload\n        /* \"#utility.yul\":1688:1751   */\n      tag_67\n        /* \"#utility.yul\":1747:1750   */\n      dup9\n        /* \"#utility.yul\":1732:1745   */\n      dup3\n        /* \"#utility.yul\":1688:1751   */\n      tag_37\n      jump\t// in\n    tag_67:\n        /* \"#utility.yul\":1681:1751   */\n      swap8\n      pop\n        /* \"#utility.yul\":1774:1834   */\n      tag_68\n        /* \"#utility.yul\":1827:1833   */\n      dup4\n        /* \"#utility.yul\":1774:1834   */\n      tag_38\n      jump\t// in\n    tag_68:\n        /* \"#utility.yul\":1764:1834   */\n      swap3\n      pop\n        /* \"#utility.yul\":1620:1844   */\n      pop\n        /* \"#utility.yul\":1607:1608   */\n      0x01\n        /* \"#utility.yul\":1604:1605   */\n      dup2\n        /* \"#utility.yul\":1600:1609   */\n      add\n        /* \"#utility.yul\":1595:1609   */\n      swap1\n      pop\n        /* \"#utility.yul\":1560:1844   */\n      jump(tag_64)\n    tag_66:\n        /* \"#utility.yul\":1564:1578   */\n      pop\n        /* \"#utility.yul\":1860:1863   */\n      dup6\n        /* \"#utility.yul\":1853:1863   */\n      swap4\n      pop\n        /* \"#utility.yul\":1261:1869   */\n      pop\n      pop\n      pop\n        /* \"#utility.yul\":1137:1869   */\n      swap3\n      swap2\n      pop\n      pop\n      jump\t// out\n        /* \"#utility.yul\":1875:2248   */\n    tag_9:\n        /* \"#utility.yul\":2018:2022   */\n      0x00\n        /* \"#utility.yul\":2056:2058   */\n      0x20\n        /* \"#utility.yul\":2045:2054   */\n      dup3\n        /* \"#utility.yul\":2041:2059   */\n      add\n        /* \"#utility.yul\":2033:2059   */\n      swap1\n      pop\n        /* \"#utility.yul\":2105:2114   */\n      dup2\n        /* \"#utility.yul\":2099:2103   */\n      dup2\n        /* \"#utility.yul\":2095:2115   */\n      sub\n        /* \"#utility.yul\":2091:2092   */\n      0x00\n        /* \"#utility.yul\":2080:2089   */\n      dup4\n        /* \"#utility.yul\":2076:2093   */\n      add\n        /* \"#utility.yul\":2069:2116   */\n      mstore\n        /* \"#utility.yul\":2133:2241   */\n      tag_70\n        /* \"#utility.yul\":2236:2240   */\n      dup2\n        /* \"#utility.yul\":2227:2233   */\n      dup5\n        /* \"#utility.yul\":2133:2241   */\n      tag_39\n      jump\t// in\n    tag_70:\n        /* \"#utility.yul\":2125:2241   */\n      swap1\n      pop\n        /* \"#utility.yul\":1875:2248   */\n      swap3\n      swap2\n      pop\n      pop\n      jump\t// out\n        /* \"#utility.yul\":2335:2452   */\n    tag_41:\n        /* \"#utility.yul\":2444:2445   */\n      0x00\n        /* \"#utility.yul\":2441:2442   */\n      dup1\n        /* \"#utility.yul\":2434:2446   */\n      revert\n        /* \"#utility.yul\":2581:2658   */\n    tag_43:\n        /* \"#utility.yul\":2618:2625   */\n      0x00\n        /* \"#utility.yul\":2647:2652   */\n      dup2\n        /* \"#utility.yul\":2636:2652   */\n      swap1\n      pop\n        /* \"#utility.yul\":2581:2658   */\n      swap2\n      swap1\n      pop\n      jump\t// out\n        /* \"#utility.yul\":2664:2786   */\n    tag_44:\n        /* \"#utility.yul\":2737:2761   */\n      tag_76\n        /* \"#utility.yul\":2755:2760   */\n      dup2\n        /* \"#utility.yul\":2737:2761   */\n      tag_43\n      jump\t// in\n    tag_76:\n        /* \"#utility.yul\":2730:2735   */\n      dup2\n        /* \"#utility.yul\":2727:2762   */\n      eq\n        /* \"#utility.yul\":2717:2780   */\n      tag_77\n      jumpi\n        /* \"#utility.yul\":2776:2777   */\n      0x00\n        /* \"#utility.yul\":2773:2774   */\n      dup1\n        /* \"#utility.yul\":2766:2778   */\n      revert\n        /* \"#utility.yul\":2717:2780   */\n    tag_77:\n        /* \"#utility.yul\":2664:2786   */\n      pop\n      jump\t// out\n        /* \"#utility.yul\":2792:2931   */\n    tag_45:\n        /* \"#utility.yul\":2838:2843   */\n      0x00\n        /* \"#utility.yul\":2876:2882   */\n      dup2\n        /* \"#utility.yul\":2863:2883   */\n      calldataload\n        /* \"#utility.yul\":2854:2883   */\n      swap1\n      pop\n        /* \"#utility.yul\":2892:2925   */\n      tag_79\n        /* \"#utility.yul\":2919:2924   */\n      dup2\n        /* \"#utility.yul\":2892:2925   */\n      tag_44\n      jump\t// in\n    tag_79:\n        /* \"#utility.yul\":2792:2931   */\n      swap3\n      swap2\n      pop\n      pop\n      jump\t// out\n        /* \"#utility.yul\":2937:3266   */\n    tag_12:\n        /* \"#utility.yul\":2996:3002   */\n      0x00\n        /* \"#utility.yul\":3045:3047   */\n      0x20\n        /* \"#utility.yul\":3033:3042   */\n      dup3\n        /* \"#utility.yul\":3024:3031   */\n      dup5\n        /* \"#utility.yul\":3020:3043   */\n      sub\n        /* \"#utility.yul\":3016:3048   */\n      slt\n        /* \"#utility.yul\":3013:3132   */\n      iszero\n      tag_81\n      jumpi\n        /* \"#utility.yul\":3051:3130   */\n      tag_82\n      tag_41\n      jump\t// in\n    tag_82:\n        /* \"#utility.yul\":3013:3132   */\n    tag_81:\n        /* \"#utility.yul\":3171:3172   */\n      0x00\n        /* \"#utility.yul\":3196:3249   */\n      tag_83\n        /* \"#utility.yul\":3241:3248   */\n      dup5\n        /* \"#utility.yul\":3232:3238   */\n      dup3\n        /* \"#utility.yul\":3221:3230   */\n      dup6\n        /* \"#utility.yul\":3217:3239   */\n      add\n        /* \"#utility.yul\":3196:3249   */\n      tag_45\n      jump\t// in\n    tag_83:\n        /* \"#utility.yul\":3186:3249   */\n      swap2\n      pop\n        /* \"#utility.yul\":3142:3259   */\n      pop\n        /* \"#utility.yul\":2937:3266   */\n      swap3\n      swap2\n      pop\n      pop\n      jump\t// out\n        /* \"#utility.yul\":3272:3390   */\n    tag_46:\n        /* \"#utility.yul\":3359:3383   */\n      tag_85\n        /* \"#utility.yul\":3377:3382   */\n      dup2\n        /* \"#utility.yul\":3359:3383   */\n      tag_35\n      jump\t// in\n    tag_85:\n        /* \"#utility.yul\":3354:3357   */\n      dup3\n        /* \"#utility.yul\":3347:3384   */\n      mstore\n        /* \"#utility.yul\":3272:3390   */\n      pop\n      pop\n      jump\t// out\n        /* \"#utility.yul\":3396:3618   */\n    tag_15:\n        /* \"#utility.yul\":3489:3493   */\n      0x00\n        /* \"#utility.yul\":3527:3529   */\n      0x20\n        /* \"#utility.yul\":3516:3525   */\n      dup3\n        /* \"#utility.yul\":3512:3530   */\n      add\n        /* \"#utility.yul\":3504:3530   */\n      swap1\n      pop\n        /* \"#utility.yul\":3540:3611   */\n      tag_87\n        /* \"#utility.yul\":3608:3609   */\n      0x00\n        /* \"#utility.yul\":3597:3606   */\n      dup4\n        /* \"#utility.yul\":3593:3610   */\n      add\n        /* \"#utility.yul\":3584:3590   */\n      dup5\n        /* \"#utility.yul\":3540:3611   */\n      tag_46\n      jump\t// in\n    tag_87:\n        /* \"#utility.yul\":3396:3618   */\n      swap3\n      swap2\n      pop\n      pop\n      jump\t// out\n        /* \"#utility.yul\":3624:3742   */\n    tag_47:\n        /* \"#utility.yul\":3711:3735   */\n      tag_89\n        /* \"#utility.yul\":3729:3734   */\n      dup2\n        /* \"#utility.yul\":3711:3735   */\n      tag_43\n      jump\t// in\n    tag_89:\n        /* \"#utility.yul\":3706:3709   */\n      dup3\n        /* \"#utility.yul\":3699:3736   */\n      mstore\n        /* \"#utility.yul\":3624:3742   */\n      pop\n      pop\n      jump\t// out\n        /* \"#utility.yul\":3748:4080   */\n    tag_28:\n        /* \"#utility.yul\":3869:3873   */\n      0x00\n        /* \"#utility.yul\":3907:3909   */\n      0x40\n        /* \"#utility.yul\":3896:3905   */\n      dup3\n        /* \"#utility.yul\":3892:3910   */\n      add\n        /* \"#utility.yul\":3884:3910   */\n      swap1\n      pop\n        /* \"#utility.yul\":3920:3991   */\n      tag_91\n        /* \"#utility.yul\":3988:3989   */\n      0x00\n        /* \"#utility.yul\":3977:3986   */\n      dup4\n        /* \"#utility.yul\":3973:3990   */\n      add\n        /* \"#utility.yul\":3964:3970   */\n      dup6\n        /* \"#utility.yul\":3920:3991   */\n      tag_47\n      jump\t// in\n    tag_91:\n        /* \"#utility.yul\":4001:4073   */\n      tag_92\n        /* \"#utility.yul\":4069:4071   */\n      0x20\n        /* \"#utility.yul\":4058:4067   */\n      dup4\n        /* \"#utility.yul\":4054:4072   */\n      add\n        /* \"#utility.yul\":4045:4051   */\n      dup5\n        /* \"#utility.yul\":4001:4073   */\n      tag_46\n      jump\t// in\n    tag_92:\n        /* \"#utility.yul\":3748:4080   */\n      swap4\n      swap3\n      pop\n      pop\n      pop\n      jump\t// out\n    stop\n\n    sub_0: assembly {\n            /* \"Campaign.sol\":442:2910  contract Campaign {... */\n          mstore(0x40, 0x80)\n            /* \"Campaign.sol\":989:1105  constructor(uint256 minimum, address creator) {... */\n          callvalue\n          dup1\n          iszero\n          tag_1\n          jumpi\n          0x00\n          dup1\n          revert\n        tag_1:\n          pop\n          mload(0x40)\n          sub(codesize, bytecodeSize)\n          dup1\n          bytecodeSize\n          dup4\n          codecopy\n          dup2\n          dup2\n          add\n          0x40\n          mstore\n          dup2\n          add\n          swap1\n          tag_2\n          swap2\n          swap1\n          tag_3\n          jump\t// in\n        tag_2:\n            /* \"Campaign.sol\":1056:1063  creator */\n          dup1\n            /* \"Campaign.sol\":1046:1053  manager */\n          0x00\n          dup1\n            /* \"Campaign.sol\":1046:1063  manager = creator */\n          0x0100\n          exp\n          dup2\n          sload\n          dup2\n          0xffffffffffffffffffffffffffffffffffffffff\n          mul\n          not\n          and\n          swap1\n          dup4\n          0xffffffffffffffffffffffffffffffffffffffff\n          and\n          mul\n          or\n          swap1\n          sstore\n          pop\n            /* \"Campaign.sol\":1090:1097  minimum */\n          dup2\n            /* \"Campaign.sol\":1074:1087  minimumAmount */\n          0x03\n            /* \"Campaign.sol\":1074:1097  minimumAmount = minimum */\n          dup2\n          swap1\n          sstore\n          pop\n            /* \"Campaign.sol\":989:1105  constructor(uint256 minimum, address creator) {... */\n          pop\n          pop\n            /* \"Campaign.sol\":442:2910  contract Campaign {... */\n          jump(tag_6)\n            /* \"#utility.yul\":88:205   */\n        tag_8:\n            /* \"#utility.yul\":197:198   */\n          0x00\n            /* \"#utility.yul\":194:195   */\n          dup1\n            /* \"#utility.yul\":187:199   */\n          revert\n            /* \"#utility.yul\":334:411   */\n        tag_10:\n            /* \"#utility.yul\":371:378   */\n          0x00\n            /* \"#utility.yul\":400:405   */\n          dup2\n            /* \"#utility.yul\":389:405   */\n          swap1\n          pop\n            /* \"#utility.yul\":334:411   */\n          swap2\n          swap1\n          pop\n          jump\t// out\n            /* \"#utility.yul\":417:539   */\n        tag_11:\n            /* \"#utility.yul\":490:514   */\n          tag_23\n            /* \"#utility.yul\":508:513   */\n          dup2\n            /* \"#utility.yul\":490:514   */\n          tag_10\n          jump\t// in\n        tag_23:\n            /* \"#utility.yul\":483:488   */\n          dup2\n            /* \"#utility.yul\":480:515   */\n          eq\n            /* \"#utility.yul\":470:533   */\n          tag_24\n          jumpi\n            /* \"#utility.yul\":529:530   */\n          0x00\n            /* \"#utility.yul\":526:527   */\n          dup1\n            /* \"#utility.yul\":519:531   */\n          revert\n            /* \"#utility.yul\":470:533   */\n        tag_24:\n            /* \"#utility.yul\":417:539   */\n          pop\n          jump\t// out\n            /* \"#utility.yul\":545:688   */\n        tag_12:\n            /* \"#utility.yul\":602:607   */\n          0x00\n            /* \"#utility.yul\":633:639   */\n          dup2\n            /* \"#utility.yul\":627:640   */\n          mload\n            /* \"#utility.yul\":618:640   */\n          swap1\n          pop\n            /* \"#utility.yul\":649:682   */\n          tag_26\n            /* \"#utility.yul\":676:681   */\n          dup2\n            /* \"#utility.yul\":649:682   */\n          tag_11\n          jump\t// in\n        tag_26:\n            /* \"#utility.yul\":545:688   */\n          swap3\n          swap2\n          pop\n          pop\n          jump\t// out\n            /* \"#utility.yul\":694:820   */\n        tag_13:\n            /* \"#utility.yul\":731:738   */\n          0x00\n            /* \"#utility.yul\":771:813   */\n          0xffffffffffffffffffffffffffffffffffffffff\n            /* \"#utility.yul\":764:769   */\n          dup3\n            /* \"#utility.yul\":760:814   */\n          and\n            /* \"#utility.yul\":749:814   */\n          swap1\n          pop\n            /* \"#utility.yul\":694:820   */\n          swap2\n          swap1\n          pop\n          jump\t// out\n            /* \"#utility.yul\":826:922   */\n        tag_14:\n            /* \"#utility.yul\":863:870   */\n          0x00\n            /* \"#utility.yul\":892:916   */\n          tag_29\n            /* \"#utility.yul\":910:915   */\n          dup3\n            /* \"#utility.yul\":892:916   */\n          tag_13\n          jump\t// in\n        tag_29:\n            /* \"#utility.yul\":881:916   */\n          swap1\n          pop\n            /* \"#utility.yul\":826:922   */\n          swap2\n          swap1\n          pop\n          jump\t// out\n            /* \"#utility.yul\":928:1050   */\n        tag_15:\n            /* \"#utility.yul\":1001:1025   */\n          tag_31\n            /* \"#utility.yul\":1019:1024   */\n          dup2\n            /* \"#utility.yul\":1001:1025   */\n          tag_14\n          jump\t// in\n        tag_31:\n            /* \"#utility.yul\":994:999   */\n          dup2\n            /* \"#utility.yul\":991:1026   */\n          eq\n            /* \"#utility.yul\":981:1044   */\n          tag_32\n          jumpi\n            /* \"#utility.yul\":1040:1041   */\n          0x00\n            /* \"#utility.yul\":1037:1038   */\n          dup1\n            /* \"#utility.yul\":1030:1042   */\n          revert\n            /* \"#utility.yul\":981:1044   */\n        tag_32:\n            /* \"#utility.yul\":928:1050   */\n          pop\n          jump\t// out\n            /* \"#utility.yul\":1056:1199   */\n        tag_16:\n            /* \"#utility.yul\":1113:1118   */\n          0x00\n            /* \"#utility.yul\":1144:1150   */\n          dup2\n            /* \"#utility.yul\":1138:1151   */\n          mload\n            /* \"#utility.yul\":1129:1151   */\n          swap1\n          pop\n            /* \"#utility.yul\":1160:1193   */\n          tag_34\n            /* \"#utility.yul\":1187:1192   */\n          dup2\n            /* \"#utility.yul\":1160:1193   */\n          tag_15\n          jump\t// in\n        tag_34:\n            /* \"#utility.yul\":1056:1199   */\n          swap3\n          swap2\n          pop\n          pop\n          jump\t// out\n            /* \"#utility.yul\":1205:1712   */\n        tag_3:\n            /* \"#utility.yul\":1284:1290   */\n          0x00\n            /* \"#utility.yul\":1292:1298   */\n          dup1\n            /* \"#utility.yul\":1341:1343   */\n          0x40\n            /* \"#utility.yul\":1329:1338   */\n          dup4\n            /* \"#utility.yul\":1320:1327   */\n          dup6\n            /* \"#utility.yul\":1316:1339   */\n          sub\n            /* \"#utility.yul\":1312:1344   */\n          slt\n            /* \"#utility.yul\":1309:1428   */\n          iszero\n          tag_36\n          jumpi\n            /* \"#utility.yul\":1347:1426   */\n          tag_37\n          tag_8\n          jump\t// in\n        tag_37:\n            /* \"#utility.yul\":1309:1428   */\n        tag_36:\n            /* \"#utility.yul\":1467:1468   */\n          0x00\n            /* \"#utility.yul\":1492:1556   */\n          tag_38\n            /* \"#utility.yul\":1548:1555   */\n          dup6\n            /* \"#utility.yul\":1539:1545   */\n          dup3\n            /* \"#utility.yul\":1528:1537   */\n          dup7\n            /* \"#utility.yul\":1524:1546   */\n          add\n            /* \"#utility.yul\":1492:1556   */\n          tag_12\n          jump\t// in\n        tag_38:\n            /* \"#utility.yul\":1482:1556   */\n          swap3\n          pop\n            /* \"#utility.yul\":1438:1566   */\n          pop\n            /* \"#utility.yul\":1605:1607   */\n          0x20\n            /* \"#utility.yul\":1631:1695   */\n          tag_39\n            /* \"#utility.yul\":1687:1694   */\n          dup6\n            /* \"#utility.yul\":1678:1684   */\n          dup3\n            /* \"#utility.yul\":1667:1676   */\n          dup7\n            /* \"#utility.yul\":1663:1685   */\n          add\n            /* \"#utility.yul\":1631:1695   */\n          tag_16\n          jump\t// in\n        tag_39:\n            /* \"#utility.yul\":1621:1695   */\n          swap2\n          pop\n            /* \"#utility.yul\":1576:1705   */\n          pop\n            /* \"#utility.yul\":1205:1712   */\n          swap3\n          pop\n          swap3\n          swap1\n          pop\n          jump\t// out\n            /* \"Campaign.sol\":442:2910  contract Campaign {... */\n        tag_6:\n          dataSize(sub_0)\n          dup1\n          dataOffset(sub_0)\n          0x00\n          codecopy\n          0x00\n          return\n        stop\n\n        sub_0: assembly {\n                /* \"Campaign.sol\":442:2910  contract Campaign {... */\n              mstore(0x40, 0x80)\n              jumpi(tag_1, lt(calldatasize, 0x04))\n              shr(0xe0, calldataload(0x00))\n              dup1\n              0x81d12c58\n              gt\n              tag_14\n              jumpi\n              dup1\n              0x81d12c58\n              eq\n              tag_8\n              jumpi\n              dup1\n              0x8a9cfd55\n              eq\n              tag_9\n              jumpi\n              dup1\n              0xb69ef8a8\n              eq\n              tag_10\n              jumpi\n              dup1\n              0xbb0c8298\n              eq\n              tag_11\n              jumpi\n              dup1\n              0xd7bb99ba\n              eq\n              tag_12\n              jumpi\n              dup1\n              0xd7d1bbdb\n              eq\n              tag_13\n              jumpi\n              jump(tag_1)\n            tag_14:\n              dup1\n              0x03441006\n              eq\n              tag_2\n              jumpi\n              dup1\n              0x0a144391\n              eq\n              tag_3\n              jumpi\n              dup1\n              0x128e9be6\n              eq\n              tag_4\n              jumpi\n              dup1\n              0x3410452a\n              eq\n              tag_5\n              jumpi\n              dup1\n              0x4051ddac\n              eq\n              tag_6\n              jumpi\n              dup1\n              0x481c6a75\n              eq\n              tag_7\n              jumpi\n            tag_1:\n              0x00\n              dup1\n              revert\n                /* \"Campaign.sol\":2042:2429  function finalizeRequest(uint256 index) public restricted {... */\n            tag_2:\n              callvalue\n              dup1\n              iszero\n              tag_15\n              jumpi\n              0x00\n              dup1\n              revert\n            tag_15:\n              pop\n              tag_16\n              0x04\n              dup1\n              calldatasize\n              sub\n              dup2\n              add\n              swap1\n              tag_17\n              swap2\n              swap1\n              tag_18\n              jump\t// in\n            tag_17:\n              tag_19\n              jump\t// in\n            tag_16:\n              stop\n                /* \"Campaign.sol\":717:758  mapping(address => bool) public approvers */\n            tag_3:\n              callvalue\n              dup1\n              iszero\n              tag_20\n              jumpi\n              0x00\n              dup1\n              revert\n            tag_20:\n              pop\n              tag_21\n              0x04\n              dup1\n              calldatasize\n              sub\n              dup2\n              add\n              swap1\n              tag_22\n              swap2\n              swap1\n              tag_23\n              jump\t// in\n            tag_22:\n              tag_24\n              jump\t// in\n            tag_21:\n              mload(0x40)\n              tag_25\n              swap2\n              swap1\n              tag_26\n              jump\t// in\n            tag_25:\n              mload(0x40)\n              dup1\n              swap2\n              sub\n              swap1\n              return\n                /* \"Campaign.sol\":832:860  uint256 public approverCount */\n            tag_4:\n              callvalue\n              dup1\n              iszero\n              tag_27\n              jumpi\n              0x00\n              dup1\n              revert\n            tag_27:\n              pop\n              tag_28\n              tag_29\n              jump\t// in\n            tag_28:\n              mload(0x40)\n              tag_30\n              swap2\n              swap1\n              tag_31\n              jump\t// in\n            tag_30:\n              mload(0x40)\n              dup1\n              swap2\n              sub\n              swap1\n              return\n                /* \"Campaign.sol\":2808:2907  function getRequestsCount() public view returns (uint256) {... */\n            tag_5:\n              callvalue\n              dup1\n              iszero\n              tag_32\n              jumpi\n              0x00\n              dup1\n              revert\n            tag_32:\n              pop\n              tag_33\n              tag_34\n              jump\t// in\n            tag_33:\n              mload(0x40)\n              tag_35\n              swap2\n              swap1\n              tag_31\n              jump\t// in\n            tag_35:\n              mload(0x40)\n              dup1\n              swap2\n              sub\n              swap1\n              return\n                /* \"Campaign.sol\":2437:2800  function getSummary()... */\n            tag_6:\n              callvalue\n              dup1\n              iszero\n              tag_36\n              jumpi\n              0x00\n              dup1\n              revert\n            tag_36:\n              pop\n              tag_37\n              tag_38\n              jump\t// in\n            tag_37:\n              mload(0x40)\n              tag_39\n              swap6\n              swap5\n              swap4\n              swap3\n              swap2\n              swap1\n              tag_40\n              jump\t// in\n            tag_39:\n              mload(0x40)\n              dup1\n              swap2\n              sub\n              swap1\n              return\n                /* \"Campaign.sol\":688:710  address public manager */\n            tag_7:\n              callvalue\n              dup1\n              iszero\n              tag_41\n              jumpi\n              0x00\n              dup1\n              revert\n            tag_41:\n              pop\n              tag_42\n              tag_43\n              jump\t// in\n            tag_42:\n              mload(0x40)\n              tag_44\n              swap2\n              swap1\n              tag_45\n              jump\t// in\n            tag_44:\n              mload(0x40)\n              dup1\n              swap2\n              sub\n              swap1\n              return\n                /* \"Campaign.sol\":765:790  Request[] public requests */\n            tag_8:\n              callvalue\n              dup1\n              iszero\n              tag_46\n              jumpi\n              0x00\n              dup1\n              revert\n            tag_46:\n              pop\n              tag_47\n              0x04\n              dup1\n              calldatasize\n              sub\n              dup2\n              add\n              swap1\n              tag_48\n              swap2\n              swap1\n              tag_18\n              jump\t// in\n            tag_48:\n              tag_49\n              jump\t// in\n            tag_47:\n              mload(0x40)\n              tag_50\n              swap6\n              swap5\n              swap4\n              swap3\n              swap2\n              swap1\n              tag_51\n              jump\t// in\n            tag_50:\n              mload(0x40)\n              dup1\n              swap2\n              sub\n              swap1\n              return\n                /* \"Campaign.sol\":1335:1744  function createRequest(... */\n            tag_9:\n              callvalue\n              dup1\n              iszero\n              tag_52\n              jumpi\n              0x00\n              dup1\n              revert\n            tag_52:\n              pop\n              tag_53\n              0x04\n              dup1\n              calldatasize\n              sub\n              dup2\n              add\n              swap1\n              tag_54\n              swap2\n              swap1\n              tag_55\n              jump\t// in\n            tag_54:\n              tag_56\n              jump\t// in\n            tag_53:\n              stop\n                /* \"Campaign.sol\":867:889  uint256 public balance */\n            tag_10:\n              callvalue\n              dup1\n              iszero\n              tag_57\n              jumpi\n              0x00\n              dup1\n              revert\n            tag_57:\n              pop\n              tag_58\n              tag_59\n              jump\t// in\n            tag_58:\n              mload(0x40)\n              tag_60\n              swap2\n              swap1\n              tag_31\n              jump\t// in\n            tag_60:\n              mload(0x40)\n              dup1\n              swap2\n              sub\n              swap1\n              return\n                /* \"Campaign.sol\":797:825  uint256 public minimumAmount */\n            tag_11:\n              callvalue\n              dup1\n              iszero\n              tag_61\n              jumpi\n              0x00\n              dup1\n              revert\n            tag_61:\n              pop\n              tag_62\n              tag_63\n              jump\t// in\n            tag_62:\n              mload(0x40)\n              tag_64\n              swap2\n              swap1\n              tag_31\n              jump\t// in\n            tag_64:\n              mload(0x40)\n              dup1\n              swap2\n              sub\n              swap1\n              return\n                /* \"Campaign.sol\":1113:1327  function contribute() public payable {... */\n            tag_12:\n              tag_65\n              tag_66\n              jump\t// in\n            tag_65:\n              stop\n                /* \"Campaign.sol\":1752:2034  function approveRequest(uint256 index) public {... */\n            tag_13:\n              callvalue\n              dup1\n              iszero\n              tag_67\n              jumpi\n              0x00\n              dup1\n              revert\n            tag_67:\n              pop\n              tag_68\n              0x04\n              dup1\n              calldatasize\n              sub\n              dup2\n              add\n              swap1\n              tag_69\n              swap2\n              swap1\n              tag_18\n              jump\t// in\n            tag_69:\n              tag_70\n              jump\t// in\n            tag_68:\n              stop\n                /* \"Campaign.sol\":2042:2429  function finalizeRequest(uint256 index) public restricted {... */\n            tag_19:\n                /* \"Campaign.sol\":953:960  manager */\n              0x00\n              dup1\n              sload\n              swap1\n              0x0100\n              exp\n              swap1\n              div\n              0xffffffffffffffffffffffffffffffffffffffff\n              and\n                /* \"Campaign.sol\":939:960  msg.sender == manager */\n              0xffffffffffffffffffffffffffffffffffffffff\n              and\n                /* \"Campaign.sol\":939:949  msg.sender */\n              caller\n                /* \"Campaign.sol\":939:960  msg.sender == manager */\n              0xffffffffffffffffffffffffffffffffffffffff\n              and\n              eq\n                /* \"Campaign.sol\":931:961  require(msg.sender == manager) */\n              tag_72\n              jumpi\n              0x00\n              dup1\n              revert\n            tag_72:\n                /* \"Campaign.sol\":2111:2134  Request storage request */\n              0x00\n                /* \"Campaign.sol\":2137:2145  requests */\n              0x02\n                /* \"Campaign.sol\":2146:2151  index */\n              dup3\n                /* \"Campaign.sol\":2137:2152  requests[index] */\n              dup2\n              sload\n              dup2\n              lt\n              tag_74\n              jumpi\n              tag_75\n              tag_76\n              jump\t// in\n            tag_75:\n            tag_74:\n              swap1\n              0x00\n              mstore\n              keccak256(0x00, 0x20)\n              swap1\n              0x05\n              mul\n              add\n                /* \"Campaign.sol\":2111:2152  Request storage request = requests[index] */\n              swap1\n              pop\n                /* \"Campaign.sol\":2214:2215  2 */\n              0x02\n                /* \"Campaign.sol\":2198:2211  approverCount */\n              sload(0x04)\n                /* \"Campaign.sol\":2198:2215  approverCount / 2 */\n              tag_78\n              swap2\n              swap1\n              tag_79\n              jump\t// in\n            tag_78:\n                /* \"Campaign.sol\":2173:2180  request */\n              dup2\n                /* \"Campaign.sol\":2173:2194  request.approvalCount */\n              0x03\n              add\n              sload\n                /* \"Campaign.sol\":2173:2216  request.approvalCount > (approverCount / 2) */\n              gt\n                /* \"Campaign.sol\":2165:2217  require(request.approvalCount > (approverCount / 2)) */\n              tag_80\n              jumpi\n              0x00\n              dup1\n              revert\n            tag_80:\n                /* \"Campaign.sol\":2247:2254  request */\n              dup1\n                /* \"Campaign.sol\":2247:2260  request.value */\n              0x01\n              add\n              sload\n                /* \"Campaign.sol\":2236:2243  balance */\n              sload(0x05)\n                /* \"Campaign.sol\":2236:2260  balance >= request.value */\n              lt\n              iszero\n                /* \"Campaign.sol\":2228:2261  require(balance >= request.value) */\n              tag_81\n              jumpi\n              0x00\n              dup1\n              revert\n            tag_81:\n                /* \"Campaign.sol\":2281:2288  request */\n              dup1\n                /* \"Campaign.sol\":2281:2297  request.complete */\n              0x02\n              add\n              0x14\n              swap1\n              sload\n              swap1\n              0x0100\n              exp\n              swap1\n              div\n              0xff\n              and\n                /* \"Campaign.sol\":2280:2297  !request.complete */\n              iszero\n                /* \"Campaign.sol\":2272:2298  require(!request.complete) */\n              tag_82\n              jumpi\n              0x00\n              dup1\n              revert\n            tag_82:\n                /* \"Campaign.sol\":2311:2318  request */\n              dup1\n                /* \"Campaign.sol\":2311:2328  request.recipient */\n              0x02\n              add\n              0x00\n              swap1\n              sload\n              swap1\n              0x0100\n              exp\n              swap1\n              div\n              0xffffffffffffffffffffffffffffffffffffffff\n              and\n                /* \"Campaign.sol\":2311:2337  request.recipient.transfer */\n              0xffffffffffffffffffffffffffffffffffffffff\n              and\n                /* \"Campaign.sol\":2311:2352  request.recipient.transfer(request.value) */\n              0x08fc\n                /* \"Campaign.sol\":2338:2345  request */\n              dup3\n                /* \"Campaign.sol\":2338:2351  request.value */\n              0x01\n              add\n              sload\n                /* \"Campaign.sol\":2311:2352  request.recipient.transfer(request.value) */\n              swap1\n              dup2\n              iszero\n              mul\n              swap1\n              mload(0x40)\n              0x00\n              mload(0x40)\n              dup1\n              dup4\n              sub\n              dup2\n              dup6\n              dup9\n              dup9\n              call\n              swap4\n              pop\n              pop\n              pop\n              pop\n              iszero\n              dup1\n              iszero\n              tag_84\n              jumpi\n              returndatasize\n              0x00\n              dup1\n              returndatacopy\n              revert(0x00, returndatasize)\n            tag_84:\n              pop\n                /* \"Campaign.sol\":2374:2381  request */\n              dup1\n                /* \"Campaign.sol\":2374:2387  request.value */\n              0x01\n              add\n              sload\n                /* \"Campaign.sol\":2363:2370  balance */\n              0x05\n              0x00\n                /* \"Campaign.sol\":2363:2387  balance -= request.value */\n              dup3\n              dup3\n              sload\n              tag_85\n              swap2\n              swap1\n              tag_86\n              jump\t// in\n            tag_85:\n              swap3\n              pop\n              pop\n              dup2\n              swap1\n              sstore\n              pop\n                /* \"Campaign.sol\":2417:2421  true */\n              0x01\n                /* \"Campaign.sol\":2398:2405  request */\n              dup2\n                /* \"Campaign.sol\":2398:2414  request.complete */\n              0x02\n              add\n              0x14\n                /* \"Campaign.sol\":2398:2421  request.complete = true */\n              0x0100\n              exp\n              dup2\n              sload\n              dup2\n              0xff\n              mul\n              not\n              and\n              swap1\n              dup4\n              iszero\n              iszero\n              mul\n              or\n              swap1\n              sstore\n              pop\n                /* \"Campaign.sol\":2100:2429  {... */\n              pop\n                /* \"Campaign.sol\":2042:2429  function finalizeRequest(uint256 index) public restricted {... */\n              pop\n              jump\t// out\n                /* \"Campaign.sol\":717:758  mapping(address => bool) public approvers */\n            tag_24:\n              mstore(0x20, 0x01)\n              dup1\n              0x00\n              mstore\n              keccak256(0x00, 0x40)\n              0x00\n              swap2\n              pop\n              sload\n              swap1\n              0x0100\n              exp\n              swap1\n              div\n              0xff\n              and\n              dup2\n              jump\t// out\n                /* \"Campaign.sol\":832:860  uint256 public approverCount */\n            tag_29:\n              sload(0x04)\n              dup2\n              jump\t// out\n                /* \"Campaign.sol\":2808:2907  function getRequestsCount() public view returns (uint256) {... */\n            tag_34:\n                /* \"Campaign.sol\":2857:2864  uint256 */\n              0x00\n                /* \"Campaign.sol\":2884:2892  requests */\n              0x02\n                /* \"Campaign.sol\":2884:2899  requests.length */\n              dup1\n              sload\n              swap1\n              pop\n                /* \"Campaign.sol\":2877:2899  return requests.length */\n              swap1\n              pop\n                /* \"Campaign.sol\":2808:2907  function getRequestsCount() public view returns (uint256) {... */\n              swap1\n              jump\t// out\n                /* \"Campaign.sol\":2437:2800  function getSummary()... */\n            tag_38:\n                /* \"Campaign.sol\":2521:2528  uint256 */\n              0x00\n                /* \"Campaign.sol\":2543:2550  uint256 */\n              dup1\n                /* \"Campaign.sol\":2565:2572  uint256 */\n              0x00\n                /* \"Campaign.sol\":2587:2594  uint256 */\n              dup1\n                /* \"Campaign.sol\":2609:2616  address */\n              0x00\n                /* \"Campaign.sol\":2666:2679  minimumAmount */\n              sload(0x03)\n                /* \"Campaign.sol\":2694:2701  balance */\n              sload(0x05)\n                /* \"Campaign.sol\":2716:2724  requests */\n              0x02\n                /* \"Campaign.sol\":2716:2731  requests.length */\n              dup1\n              sload\n              swap1\n              pop\n                /* \"Campaign.sol\":2746:2759  approverCount */\n              sload(0x04)\n                /* \"Campaign.sol\":2774:2781  manager */\n              0x00\n              dup1\n              sload\n              swap1\n              0x0100\n              exp\n              swap1\n              div\n              0xffffffffffffffffffffffffffffffffffffffff\n              and\n                /* \"Campaign.sol\":2644:2792  return (... */\n              swap5\n              pop\n              swap5\n              pop\n              swap5\n              pop\n              swap5\n              pop\n              swap5\n              pop\n                /* \"Campaign.sol\":2437:2800  function getSummary()... */\n              swap1\n              swap2\n              swap3\n              swap4\n              swap5\n              jump\t// out\n                /* \"Campaign.sol\":688:710  address public manager */\n            tag_43:\n              0x00\n              dup1\n              sload\n              swap1\n              0x0100\n              exp\n              swap1\n              div\n              0xffffffffffffffffffffffffffffffffffffffff\n              and\n              dup2\n              jump\t// out\n                /* \"Campaign.sol\":765:790  Request[] public requests */\n            tag_49:\n              0x02\n              dup2\n              dup2\n              sload\n              dup2\n              lt\n              tag_89\n              jumpi\n              0x00\n              dup1\n              revert\n            tag_89:\n              swap1\n              0x00\n              mstore\n              keccak256(0x00, 0x20)\n              swap1\n              0x05\n              mul\n              add\n              0x00\n              swap2\n              pop\n              swap1\n              pop\n              dup1\n              0x00\n              add\n              dup1\n              sload\n              tag_91\n              swap1\n              tag_92\n              jump\t// in\n            tag_91:\n              dup1\n              0x1f\n              add\n              0x20\n              dup1\n              swap2\n              div\n              mul\n              0x20\n              add\n              mload(0x40)\n              swap1\n              dup2\n              add\n              0x40\n              mstore\n              dup1\n              swap3\n              swap2\n              swap1\n              dup2\n              dup2\n              mstore\n              0x20\n              add\n              dup3\n              dup1\n              sload\n              tag_93\n              swap1\n              tag_92\n              jump\t// in\n            tag_93:\n              dup1\n              iszero\n              tag_94\n              jumpi\n              dup1\n              0x1f\n              lt\n              tag_95\n              jumpi\n              0x0100\n              dup1\n              dup4\n              sload\n              div\n              mul\n              dup4\n              mstore\n              swap2\n              0x20\n              add\n              swap2\n              jump(tag_94)\n            tag_95:\n              dup3\n              add\n              swap2\n              swap1\n              0x00\n              mstore\n              keccak256(0x00, 0x20)\n              swap1\n            tag_96:\n              dup2\n              sload\n              dup2\n              mstore\n              swap1\n              0x01\n              add\n              swap1\n              0x20\n              add\n              dup1\n              dup4\n              gt\n              tag_96\n              jumpi\n              dup3\n              swap1\n              sub\n              0x1f\n              and\n              dup3\n              add\n              swap2\n            tag_94:\n              pop\n              pop\n              pop\n              pop\n              pop\n              swap1\n              dup1\n              0x01\n              add\n              sload\n              swap1\n              dup1\n              0x02\n              add\n              0x00\n              swap1\n              sload\n              swap1\n              0x0100\n              exp\n              swap1\n              div\n              0xffffffffffffffffffffffffffffffffffffffff\n              and\n              swap1\n              dup1\n              0x02\n              add\n              0x14\n              swap1\n              sload\n              swap1\n              0x0100\n              exp\n              swap1\n              div\n              0xff\n              and\n              swap1\n              dup1\n              0x03\n              add\n              sload\n              swap1\n              pop\n              dup6\n              jump\t// out\n                /* \"Campaign.sol\":1335:1744  function createRequest(... */\n            tag_56:\n                /* \"Campaign.sol\":953:960  manager */\n              0x00\n              dup1\n              sload\n              swap1\n              0x0100\n              exp\n              swap1\n              div\n              0xffffffffffffffffffffffffffffffffffffffff\n              and\n                /* \"Campaign.sol\":939:960  msg.sender == manager */\n              0xffffffffffffffffffffffffffffffffffffffff\n              and\n                /* \"Campaign.sol\":939:949  msg.sender */\n              caller\n                /* \"Campaign.sol\":939:960  msg.sender == manager */\n              0xffffffffffffffffffffffffffffffffffffffff\n              and\n              eq\n                /* \"Campaign.sol\":931:961  require(msg.sender == manager) */\n              tag_98\n              jumpi\n              0x00\n              dup1\n              revert\n            tag_98:\n                /* \"Campaign.sol\":1490:1516  Request storage newRequest */\n              0x00\n                /* \"Campaign.sol\":1519:1527  requests */\n              0x02\n                /* \"Campaign.sol\":1519:1534  requests.push() */\n              0x01\n              dup2\n              0x01\n              dup2\n              sload\n              add\n              dup1\n              dup3\n              sstore\n              dup1\n              swap2\n              pop\n              pop\n              sub\n              swap1\n              0x00\n              mstore\n              keccak256(0x00, 0x20)\n              swap1\n              0x05\n              mul\n              add\n                /* \"Campaign.sol\":1490:1534  Request storage newRequest = requests.push() */\n              swap1\n              pop\n                /* \"Campaign.sol\":1570:1581  description */\n              dup4\n                /* \"Campaign.sol\":1545:1555  newRequest */\n              dup2\n                /* \"Campaign.sol\":1545:1567  newRequest.description */\n              0x00\n              add\n                /* \"Campaign.sol\":1545:1581  newRequest.description = description */\n              swap1\n              dup1\n              mload\n              swap1\n              0x20\n              add\n              swap1\n              tag_101\n              swap3\n              swap2\n              swap1\n              tag_102\n              jump\t// in\n            tag_101:\n              pop\n                /* \"Campaign.sol\":1611:1616  value */\n              dup3\n                /* \"Campaign.sol\":1592:1602  newRequest */\n              dup2\n                /* \"Campaign.sol\":1592:1608  newRequest.value */\n              0x01\n              add\n                /* \"Campaign.sol\":1592:1616  newRequest.value = value */\n              dup2\n              swap1\n              sstore\n              pop\n                /* \"Campaign.sol\":1650:1659  recipient */\n              dup2\n                /* \"Campaign.sol\":1627:1637  newRequest */\n              dup2\n                /* \"Campaign.sol\":1627:1647  newRequest.recipient */\n              0x02\n              add\n              0x00\n                /* \"Campaign.sol\":1627:1659  newRequest.recipient = recipient */\n              0x0100\n              exp\n              dup2\n              sload\n              dup2\n              0xffffffffffffffffffffffffffffffffffffffff\n              mul\n              not\n              and\n              swap1\n              dup4\n              0xffffffffffffffffffffffffffffffffffffffff\n              and\n              mul\n              or\n              swap1\n              sstore\n              pop\n                /* \"Campaign.sol\":1692:1697  false */\n              0x00\n                /* \"Campaign.sol\":1670:1680  newRequest */\n              dup2\n                /* \"Campaign.sol\":1670:1689  newRequest.complete */\n              0x02\n              add\n              0x14\n                /* \"Campaign.sol\":1670:1697  newRequest.complete = false */\n              0x0100\n              exp\n              dup2\n              sload\n              dup2\n              0xff\n              mul\n              not\n              and\n              swap1\n              dup4\n              iszero\n              iszero\n              mul\n              or\n              swap1\n              sstore\n              pop\n                /* \"Campaign.sol\":1735:1736  0 */\n              0x00\n                /* \"Campaign.sol\":1708:1718  newRequest */\n              dup2\n                /* \"Campaign.sol\":1708:1732  newRequest.approvalCount */\n              0x03\n              add\n                /* \"Campaign.sol\":1708:1736  newRequest.approvalCount = 0 */\n              dup2\n              swap1\n              sstore\n              pop\n                /* \"Campaign.sol\":1479:1744  {... */\n              pop\n                /* \"Campaign.sol\":1335:1744  function createRequest(... */\n              pop\n              pop\n              pop\n              jump\t// out\n                /* \"Campaign.sol\":867:889  uint256 public balance */\n            tag_59:\n              sload(0x05)\n              dup2\n              jump\t// out\n                /* \"Campaign.sol\":797:825  uint256 public minimumAmount */\n            tag_63:\n              sload(0x03)\n              dup2\n              jump\t// out\n                /* \"Campaign.sol\":1113:1327  function contribute() public payable {... */\n            tag_66:\n                /* \"Campaign.sol\":1181:1194  minimumAmount */\n              sload(0x03)\n                /* \"Campaign.sol\":1169:1178  msg.value */\n              callvalue\n                /* \"Campaign.sol\":1169:1194  msg.value > minimumAmount */\n              gt\n                /* \"Campaign.sol\":1161:1195  require(msg.value > minimumAmount) */\n              tag_104\n              jumpi\n              0x00\n              dup1\n              revert\n            tag_104:\n                /* \"Campaign.sol\":1211:1220  approvers */\n              0x01\n                /* \"Campaign.sol\":1211:1232  approvers[msg.sender] */\n              0x00\n                /* \"Campaign.sol\":1221:1231  msg.sender */\n              caller\n                /* \"Campaign.sol\":1211:1232  approvers[msg.sender] */\n              0xffffffffffffffffffffffffffffffffffffffff\n              and\n              0xffffffffffffffffffffffffffffffffffffffff\n              and\n              dup2\n              mstore\n              0x20\n              add\n              swap1\n              dup2\n              mstore\n              0x20\n              add\n              0x00\n              keccak256\n              0x00\n              swap1\n              sload\n              swap1\n              0x0100\n              exp\n              swap1\n              div\n              0xff\n              and\n                /* \"Campaign.sol\":1206:1249  if (!approvers[msg.sender]) approverCount++ */\n              tag_105\n              jumpi\n                /* \"Campaign.sol\":1234:1247  approverCount */\n              0x04\n              0x00\n                /* \"Campaign.sol\":1234:1249  approverCount++ */\n              dup2\n              sload\n              dup1\n              swap3\n              swap2\n              swap1\n              tag_106\n              swap1\n              tag_107\n              jump\t// in\n            tag_106:\n              swap2\n              swap1\n              pop\n              sstore\n              pop\n                /* \"Campaign.sol\":1206:1249  if (!approvers[msg.sender]) approverCount++ */\n            tag_105:\n                /* \"Campaign.sol\":1284:1288  true */\n              0x01\n                /* \"Campaign.sol\":1260:1269  approvers */\n              dup1\n                /* \"Campaign.sol\":1260:1281  approvers[msg.sender] */\n              0x00\n                /* \"Campaign.sol\":1270:1280  msg.sender */\n              caller\n                /* \"Campaign.sol\":1260:1281  approvers[msg.sender] */\n              0xffffffffffffffffffffffffffffffffffffffff\n              and\n              0xffffffffffffffffffffffffffffffffffffffff\n              and\n              dup2\n              mstore\n              0x20\n              add\n              swap1\n              dup2\n              mstore\n              0x20\n              add\n              0x00\n              keccak256\n              0x00\n                /* \"Campaign.sol\":1260:1288  approvers[msg.sender] = true */\n              0x0100\n              exp\n              dup2\n              sload\n              dup2\n              0xff\n              mul\n              not\n              and\n              swap1\n              dup4\n              iszero\n              iszero\n              mul\n              or\n              swap1\n              sstore\n              pop\n                /* \"Campaign.sol\":1310:1319  msg.value */\n              callvalue\n                /* \"Campaign.sol\":1299:1306  balance */\n              0x05\n              0x00\n                /* \"Campaign.sol\":1299:1319  balance += msg.value */\n              dup3\n              dup3\n              sload\n              tag_108\n              swap2\n              swap1\n              tag_109\n              jump\t// in\n            tag_108:\n              swap3\n              pop\n              pop\n              dup2\n              swap1\n              sstore\n              pop\n                /* \"Campaign.sol\":1113:1327  function contribute() public payable {... */\n              jump\t// out\n                /* \"Campaign.sol\":1752:2034  function approveRequest(uint256 index) public {... */\n            tag_70:\n                /* \"Campaign.sol\":1809:1832  Request storage request */\n              0x00\n                /* \"Campaign.sol\":1835:1843  requests */\n              0x02\n                /* \"Campaign.sol\":1844:1849  index */\n              dup3\n                /* \"Campaign.sol\":1835:1850  requests[index] */\n              dup2\n              sload\n              dup2\n              lt\n              tag_111\n              jumpi\n              tag_112\n              tag_76\n              jump\t// in\n            tag_112:\n            tag_111:\n              swap1\n              0x00\n              mstore\n              keccak256(0x00, 0x20)\n              swap1\n              0x05\n              mul\n              add\n                /* \"Campaign.sol\":1809:1850  Request storage request = requests[index] */\n              swap1\n              pop\n                /* \"Campaign.sol\":1871:1880  approvers */\n              0x01\n                /* \"Campaign.sol\":1871:1892  approvers[msg.sender] */\n              0x00\n                /* \"Campaign.sol\":1881:1891  msg.sender */\n              caller\n                /* \"Campaign.sol\":1871:1892  approvers[msg.sender] */\n              0xffffffffffffffffffffffffffffffffffffffff\n              and\n              0xffffffffffffffffffffffffffffffffffffffff\n              and\n              dup2\n              mstore\n              0x20\n              add\n              swap1\n              dup2\n              mstore\n              0x20\n              add\n              0x00\n              keccak256\n              0x00\n              swap1\n              sload\n              swap1\n              0x0100\n              exp\n              swap1\n              div\n              0xff\n              and\n                /* \"Campaign.sol\":1863:1893  require(approvers[msg.sender]) */\n              tag_114\n              jumpi\n              0x00\n              dup1\n              revert\n            tag_114:\n                /* \"Campaign.sol\":1913:1920  request */\n              dup1\n                /* \"Campaign.sol\":1913:1930  request.approvals */\n              0x04\n              add\n                /* \"Campaign.sol\":1913:1942  request.approvals[msg.sender] */\n              0x00\n                /* \"Campaign.sol\":1931:1941  msg.sender */\n              caller\n                /* \"Campaign.sol\":1913:1942  request.approvals[msg.sender] */\n              0xffffffffffffffffffffffffffffffffffffffff\n              and\n              0xffffffffffffffffffffffffffffffffffffffff\n              and\n              dup2\n              mstore\n              0x20\n              add\n              swap1\n              dup2\n              mstore\n              0x20\n              add\n              0x00\n              keccak256\n              0x00\n              swap1\n              sload\n              swap1\n              0x0100\n              exp\n              swap1\n              div\n              0xff\n              and\n                /* \"Campaign.sol\":1912:1942  !request.approvals[msg.sender] */\n              iszero\n                /* \"Campaign.sol\":1904:1943  require(!request.approvals[msg.sender]) */\n              tag_115\n              jumpi\n              0x00\n              dup1\n              revert\n            tag_115:\n                /* \"Campaign.sol\":1988:1992  true */\n              0x01\n                /* \"Campaign.sol\":1956:1963  request */\n              dup2\n                /* \"Campaign.sol\":1956:1973  request.approvals */\n              0x04\n              add\n                /* \"Campaign.sol\":1956:1985  request.approvals[msg.sender] */\n              0x00\n                /* \"Campaign.sol\":1974:1984  msg.sender */\n              caller\n                /* \"Campaign.sol\":1956:1985  request.approvals[msg.sender] */\n              0xffffffffffffffffffffffffffffffffffffffff\n              and\n              0xffffffffffffffffffffffffffffffffffffffff\n              and\n              dup2\n              mstore\n              0x20\n              add\n              swap1\n              dup2\n              mstore\n              0x20\n              add\n              0x00\n              keccak256\n              0x00\n                /* \"Campaign.sol\":1956:1992  request.approvals[msg.sender] = true */\n              0x0100\n              exp\n              dup2\n              sload\n              dup2\n              0xff\n              mul\n              not\n              and\n              swap1\n              dup4\n              iszero\n              iszero\n              mul\n              or\n              swap1\n              sstore\n              pop\n                /* \"Campaign.sol\":2003:2010  request */\n              dup1\n                /* \"Campaign.sol\":2003:2024  request.approvalCount */\n              0x03\n              add\n              0x00\n                /* \"Campaign.sol\":2003:2026  request.approvalCount++ */\n              dup2\n              sload\n              dup1\n              swap3\n              swap2\n              swap1\n              tag_116\n              swap1\n              tag_107\n              jump\t// in\n            tag_116:\n              swap2\n              swap1\n              pop\n              sstore\n              pop\n                /* \"Campaign.sol\":1798:2034  {... */\n              pop\n                /* \"Campaign.sol\":1752:2034  function approveRequest(uint256 index) public {... */\n              pop\n              jump\t// out\n            tag_102:\n              dup3\n              dup1\n              sload\n              tag_117\n              swap1\n              tag_92\n              jump\t// in\n            tag_117:\n              swap1\n              0x00\n              mstore\n              keccak256(0x00, 0x20)\n              swap1\n              0x1f\n              add\n              0x20\n              swap1\n              div\n              dup2\n              add\n              swap3\n              dup3\n              tag_119\n              jumpi\n              0x00\n              dup6\n              sstore\n              jump(tag_118)\n            tag_119:\n              dup3\n              0x1f\n              lt\n              tag_120\n              jumpi\n              dup1\n              mload\n              not(0xff)\n              and\n              dup4\n              dup1\n              add\n              or\n              dup6\n              sstore\n              jump(tag_118)\n            tag_120:\n              dup3\n              dup1\n              add\n              0x01\n              add\n              dup6\n              sstore\n              dup3\n              iszero\n              tag_118\n              jumpi\n              swap2\n              dup3\n              add\n            tag_121:\n              dup3\n              dup2\n              gt\n              iszero\n              tag_122\n              jumpi\n              dup3\n              mload\n              dup3\n              sstore\n              swap2\n              0x20\n              add\n              swap2\n              swap1\n              0x01\n              add\n              swap1\n              jump(tag_121)\n            tag_122:\n            tag_118:\n              pop\n              swap1\n              pop\n              tag_123\n              swap2\n              swap1\n              tag_124\n              jump\t// in\n            tag_123:\n              pop\n              swap1\n              jump\t// out\n            tag_124:\n            tag_125:\n              dup1\n              dup3\n              gt\n              iszero\n              tag_126\n              jumpi\n              0x00\n              dup2\n              0x00\n              swap1\n              sstore\n              pop\n              0x01\n              add\n              jump(tag_125)\n            tag_126:\n              pop\n              swap1\n              jump\t// out\n                /* \"#utility.yul\":7:82   */\n            tag_127:\n                /* \"#utility.yul\":40:46   */\n              0x00\n                /* \"#utility.yul\":73:75   */\n              0x40\n                /* \"#utility.yul\":67:76   */\n              mload\n                /* \"#utility.yul\":57:76   */\n              swap1\n              pop\n                /* \"#utility.yul\":7:82   */\n              swap1\n              jump\t// out\n                /* \"#utility.yul\":88:205   */\n            tag_128:\n                /* \"#utility.yul\":197:198   */\n              0x00\n                /* \"#utility.yul\":194:195   */\n              dup1\n                /* \"#utility.yul\":187:199   */\n              revert\n                /* \"#utility.yul\":211:328   */\n            tag_129:\n                /* \"#utility.yul\":320:321   */\n              0x00\n                /* \"#utility.yul\":317:318   */\n              dup1\n                /* \"#utility.yul\":310:322   */\n              revert\n                /* \"#utility.yul\":334:411   */\n            tag_130:\n                /* \"#utility.yul\":371:378   */\n              0x00\n                /* \"#utility.yul\":400:405   */\n              dup2\n                /* \"#utility.yul\":389:405   */\n              swap1\n              pop\n                /* \"#utility.yul\":334:411   */\n              swap2\n              swap1\n              pop\n              jump\t// out\n                /* \"#utility.yul\":417:539   */\n            tag_131:\n                /* \"#utility.yul\":490:514   */\n              tag_168\n                /* \"#utility.yul\":508:513   */\n              dup2\n                /* \"#utility.yul\":490:514   */\n              tag_130\n              jump\t// in\n            tag_168:\n                /* \"#utility.yul\":483:488   */\n              dup2\n                /* \"#utility.yul\":480:515   */\n              eq\n                /* \"#utility.yul\":470:533   */\n              tag_169\n              jumpi\n                /* \"#utility.yul\":529:530   */\n              0x00\n                /* \"#utility.yul\":526:527   */\n              dup1\n                /* \"#utility.yul\":519:531   */\n              revert\n                /* \"#utility.yul\":470:533   */\n            tag_169:\n                /* \"#utility.yul\":417:539   */\n              pop\n              jump\t// out\n                /* \"#utility.yul\":545:684   */\n            tag_132:\n                /* \"#utility.yul\":591:596   */\n              0x00\n                /* \"#utility.yul\":629:635   */\n              dup2\n                /* \"#utility.yul\":616:636   */\n              calldataload\n                /* \"#utility.yul\":607:636   */\n              swap1\n              pop\n                /* \"#utility.yul\":645:678   */\n              tag_171\n                /* \"#utility.yul\":672:677   */\n              dup2\n                /* \"#utility.yul\":645:678   */\n              tag_131\n              jump\t// in\n            tag_171:\n                /* \"#utility.yul\":545:684   */\n              swap3\n              swap2\n              pop\n              pop\n              jump\t// out\n                /* \"#utility.yul\":690:1019   */\n            tag_18:\n                /* \"#utility.yul\":749:755   */\n              0x00\n                /* \"#utility.yul\":798:800   */\n              0x20\n                /* \"#utility.yul\":786:795   */\n              dup3\n                /* \"#utility.yul\":777:784   */\n              dup5\n                /* \"#utility.yul\":773:796   */\n              sub\n                /* \"#utility.yul\":769:801   */\n              slt\n                /* \"#utility.yul\":766:885   */\n              iszero\n              tag_173\n              jumpi\n                /* \"#utility.yul\":804:883   */\n              tag_174\n              tag_128\n              jump\t// in\n            tag_174:\n                /* \"#utility.yul\":766:885   */\n            tag_173:\n                /* \"#utility.yul\":924:925   */\n              0x00\n                /* \"#utility.yul\":949:1002   */\n              tag_175\n                /* \"#utility.yul\":994:1001   */\n              dup5\n                /* \"#utility.yul\":985:991   */\n              dup3\n                /* \"#utility.yul\":974:983   */\n              dup6\n                /* \"#utility.yul\":970:992   */\n              add\n                /* \"#utility.yul\":949:1002   */\n              tag_132\n              jump\t// in\n            tag_175:\n                /* \"#utility.yul\":939:1002   */\n              swap2\n              pop\n                /* \"#utility.yul\":895:1012   */\n              pop\n                /* \"#utility.yul\":690:1019   */\n              swap3\n              swap2\n              pop\n              pop\n              jump\t// out\n                /* \"#utility.yul\":1025:1151   */\n            tag_133:\n                /* \"#utility.yul\":1062:1069   */\n              0x00\n                /* \"#utility.yul\":1102:1144   */\n              0xffffffffffffffffffffffffffffffffffffffff\n                /* \"#utility.yul\":1095:1100   */\n              dup3\n                /* \"#utility.yul\":1091:1145   */\n              and\n                /* \"#utility.yul\":1080:1145   */\n              swap1\n              pop\n                /* \"#utility.yul\":1025:1151   */\n              swap2\n              swap1\n              pop\n              jump\t// out\n                /* \"#utility.yul\":1157:1253   */\n            tag_134:\n                /* \"#utility.yul\":1194:1201   */\n              0x00\n                /* \"#utility.yul\":1223:1247   */\n              tag_178\n                /* \"#utility.yul\":1241:1246   */\n              dup3\n                /* \"#utility.yul\":1223:1247   */\n              tag_133\n              jump\t// in\n            tag_178:\n                /* \"#utility.yul\":1212:1247   */\n              swap1\n              pop\n                /* \"#utility.yul\":1157:1253   */\n              swap2\n              swap1\n              pop\n              jump\t// out\n                /* \"#utility.yul\":1259:1381   */\n            tag_135:\n                /* \"#utility.yul\":1332:1356   */\n              tag_180\n                /* \"#utility.yul\":1350:1355   */\n              dup2\n                /* \"#utility.yul\":1332:1356   */\n              tag_134\n              jump\t// in\n            tag_180:\n                /* \"#utility.yul\":1325:1330   */\n              dup2\n                /* \"#utility.yul\":1322:1357   */\n              eq\n                /* \"#utility.yul\":1312:1375   */\n              tag_181\n              jumpi\n                /* \"#utility.yul\":1371:1372   */\n              0x00\n                /* \"#utility.yul\":1368:1369   */\n              dup1\n                /* \"#utility.yul\":1361:1373   */\n              revert\n                /* \"#utility.yul\":1312:1375   */\n            tag_181:\n                /* \"#utility.yul\":1259:1381   */\n              pop\n              jump\t// out\n                /* \"#utility.yul\":1387:1526   */\n            tag_136:\n                /* \"#utility.yul\":1433:1438   */\n              0x00\n                /* \"#utility.yul\":1471:1477   */\n              dup2\n                /* \"#utility.yul\":1458:1478   */\n              calldataload\n                /* \"#utility.yul\":1449:1478   */\n              swap1\n              pop\n                /* \"#utility.yul\":1487:1520   */\n              tag_183\n                /* \"#utility.yul\":1514:1519   */\n              dup2\n                /* \"#utility.yul\":1487:1520   */\n              tag_135\n              jump\t// in\n            tag_183:\n                /* \"#utility.yul\":1387:1526   */\n              swap3\n              swap2\n              pop\n              pop\n              jump\t// out\n                /* \"#utility.yul\":1532:1861   */\n            tag_23:\n                /* \"#utility.yul\":1591:1597   */\n              0x00\n                /* \"#utility.yul\":1640:1642   */\n              0x20\n                /* \"#utility.yul\":1628:1637   */\n              dup3\n                /* \"#utility.yul\":1619:1626   */\n              dup5\n                /* \"#utility.yul\":1615:1638   */\n              sub\n                /* \"#utility.yul\":1611:1643   */\n              slt\n                /* \"#utility.yul\":1608:1727   */\n              iszero\n              tag_185\n              jumpi\n                /* \"#utility.yul\":1646:1725   */\n              tag_186\n              tag_128\n              jump\t// in\n            tag_186:\n                /* \"#utility.yul\":1608:1727   */\n            tag_185:\n                /* \"#utility.yul\":1766:1767   */\n              0x00\n                /* \"#utility.yul\":1791:1844   */\n              tag_187\n                /* \"#utility.yul\":1836:1843   */\n              dup5\n                /* \"#utility.yul\":1827:1833   */\n              dup3\n                /* \"#utility.yul\":1816:1825   */\n              dup6\n                /* \"#utility.yul\":1812:1834   */\n              add\n                /* \"#utility.yul\":1791:1844   */\n              tag_136\n              jump\t// in\n            tag_187:\n                /* \"#utility.yul\":1781:1844   */\n              swap2\n              pop\n                /* \"#utility.yul\":1737:1854   */\n              pop\n                /* \"#utility.yul\":1532:1861   */\n              swap3\n              swap2\n              pop\n              pop\n              jump\t// out\n                /* \"#utility.yul\":1867:1957   */\n            tag_137:\n                /* \"#utility.yul\":1901:1908   */\n              0x00\n                /* \"#utility.yul\":1944:1949   */\n              dup2\n                /* \"#utility.yul\":1937:1950   */\n              iszero\n                /* \"#utility.yul\":1930:1951   */\n              iszero\n                /* \"#utility.yul\":1919:1951   */\n              swap1\n              pop\n                /* \"#utility.yul\":1867:1957   */\n              swap2\n              swap1\n              pop\n              jump\t// out\n                /* \"#utility.yul\":1963:2072   */\n            tag_138:\n                /* \"#utility.yul\":2044:2065   */\n              tag_190\n                /* \"#utility.yul\":2059:2064   */\n              dup2\n                /* \"#utility.yul\":2044:2065   */\n              tag_137\n              jump\t// in\n            tag_190:\n                /* \"#utility.yul\":2039:2042   */\n              dup3\n                /* \"#utility.yul\":2032:2066   */\n              mstore\n                /* \"#utility.yul\":1963:2072   */\n              pop\n              pop\n              jump\t// out\n                /* \"#utility.yul\":2078:2288   */\n            tag_26:\n                /* \"#utility.yul\":2165:2169   */\n              0x00\n                /* \"#utility.yul\":2203:2205   */\n              0x20\n                /* \"#utility.yul\":2192:2201   */\n              dup3\n                /* \"#utility.yul\":2188:2206   */\n              add\n                /* \"#utility.yul\":2180:2206   */\n              swap1\n              pop\n                /* \"#utility.yul\":2216:2281   */\n              tag_192\n                /* \"#utility.yul\":2278:2279   */\n              0x00\n                /* \"#utility.yul\":2267:2276   */\n              dup4\n                /* \"#utility.yul\":2263:2280   */\n              add\n                /* \"#utility.yul\":2254:2260   */\n              dup5\n                /* \"#utility.yul\":2216:2281   */\n              tag_138\n              jump\t// in\n            tag_192:\n                /* \"#utility.yul\":2078:2288   */\n              swap3\n              swap2\n              pop\n              pop\n              jump\t// out\n                /* \"#utility.yul\":2294:2412   */\n            tag_139:\n                /* \"#utility.yul\":2381:2405   */\n              tag_194\n                /* \"#utility.yul\":2399:2404   */\n              dup2\n                /* \"#utility.yul\":2381:2405   */\n              tag_130\n              jump\t// in\n            tag_194:\n                /* \"#utility.yul\":2376:2379   */\n              dup3\n                /* \"#utility.yul\":2369:2406   */\n              mstore\n                /* \"#utility.yul\":2294:2412   */\n              pop\n              pop\n              jump\t// out\n                /* \"#utility.yul\":2418:2640   */\n            tag_31:\n                /* \"#utility.yul\":2511:2515   */\n              0x00\n                /* \"#utility.yul\":2549:2551   */\n              0x20\n                /* \"#utility.yul\":2538:2547   */\n              dup3\n                /* \"#utility.yul\":2534:2552   */\n              add\n                /* \"#utility.yul\":2526:2552   */\n              swap1\n              pop\n                /* \"#utility.yul\":2562:2633   */\n              tag_196\n                /* \"#utility.yul\":2630:2631   */\n              0x00\n                /* \"#utility.yul\":2619:2628   */\n              dup4\n                /* \"#utility.yul\":2615:2632   */\n              add\n                /* \"#utility.yul\":2606:2612   */\n              dup5\n                /* \"#utility.yul\":2562:2633   */\n              tag_139\n              jump\t// in\n            tag_196:\n                /* \"#utility.yul\":2418:2640   */\n              swap3\n              swap2\n              pop\n              pop\n              jump\t// out\n                /* \"#utility.yul\":2646:2764   */\n            tag_140:\n                /* \"#utility.yul\":2733:2757   */\n              tag_198\n                /* \"#utility.yul\":2751:2756   */\n              dup2\n                /* \"#utility.yul\":2733:2757   */\n              tag_134\n              jump\t// in\n            tag_198:\n                /* \"#utility.yul\":2728:2731   */\n              dup3\n                /* \"#utility.yul\":2721:2758   */\n              mstore\n                /* \"#utility.yul\":2646:2764   */\n              pop\n              pop\n              jump\t// out\n                /* \"#utility.yul\":2770:3434   */\n            tag_40:\n                /* \"#utility.yul\":2975:2979   */\n              0x00\n                /* \"#utility.yul\":3013:3016   */\n              0xa0\n                /* \"#utility.yul\":3002:3011   */\n              dup3\n                /* \"#utility.yul\":2998:3017   */\n              add\n                /* \"#utility.yul\":2990:3017   */\n              swap1\n              pop\n                /* \"#utility.yul\":3027:3098   */\n              tag_200\n                /* \"#utility.yul\":3095:3096   */\n              0x00\n                /* \"#utility.yul\":3084:3093   */\n              dup4\n                /* \"#utility.yul\":3080:3097   */\n              add\n                /* \"#utility.yul\":3071:3077   */\n              dup9\n                /* \"#utility.yul\":3027:3098   */\n              tag_139\n              jump\t// in\n            tag_200:\n                /* \"#utility.yul\":3108:3180   */\n              tag_201\n                /* \"#utility.yul\":3176:3178   */\n              0x20\n                /* \"#utility.yul\":3165:3174   */\n              dup4\n                /* \"#utility.yul\":3161:3179   */\n              add\n                /* \"#utility.yul\":3152:3158   */\n              dup8\n                /* \"#utility.yul\":3108:3180   */\n              tag_139\n              jump\t// in\n            tag_201:\n                /* \"#utility.yul\":3190:3262   */\n              tag_202\n                /* \"#utility.yul\":3258:3260   */\n              0x40\n                /* \"#utility.yul\":3247:3256   */\n              dup4\n                /* \"#utility.yul\":3243:3261   */\n              add\n                /* \"#utility.yul\":3234:3240   */\n              dup7\n                /* \"#utility.yul\":3190:3262   */\n              tag_139\n              jump\t// in\n            tag_202:\n                /* \"#utility.yul\":3272:3344   */\n              tag_203\n                /* \"#utility.yul\":3340:3342   */\n              0x60\n                /* \"#utility.yul\":3329:3338   */\n              dup4\n                /* \"#utility.yul\":3325:3343   */\n              add\n                /* \"#utility.yul\":3316:3322   */\n              dup6\n                /* \"#utility.yul\":3272:3344   */\n              tag_139\n              jump\t// in\n            tag_203:\n                /* \"#utility.yul\":3354:3427   */\n              tag_204\n                /* \"#utility.yul\":3422:3425   */\n              0x80\n                /* \"#utility.yul\":3411:3420   */\n              dup4\n                /* \"#utility.yul\":3407:3426   */\n              add\n                /* \"#utility.yul\":3398:3404   */\n              dup5\n                /* \"#utility.yul\":3354:3427   */\n              tag_140\n              jump\t// in\n            tag_204:\n                /* \"#utility.yul\":2770:3434   */\n              swap7\n              swap6\n              pop\n              pop\n              pop\n              pop\n              pop\n              pop\n              jump\t// out\n                /* \"#utility.yul\":3440:3662   */\n            tag_45:\n                /* \"#utility.yul\":3533:3537   */\n              0x00\n                /* \"#utility.yul\":3571:3573   */\n              0x20\n                /* \"#utility.yul\":3560:3569   */\n              dup3\n                /* \"#utility.yul\":3556:3574   */\n              add\n                /* \"#utility.yul\":3548:3574   */\n              swap1\n              pop\n                /* \"#utility.yul\":3584:3655   */\n              tag_206\n                /* \"#utility.yul\":3652:3653   */\n              0x00\n                /* \"#utility.yul\":3641:3650   */\n              dup4\n                /* \"#utility.yul\":3637:3654   */\n              add\n                /* \"#utility.yul\":3628:3634   */\n              dup5\n                /* \"#utility.yul\":3584:3655   */\n              tag_140\n              jump\t// in\n            tag_206:\n                /* \"#utility.yul\":3440:3662   */\n              swap3\n              swap2\n              pop\n              pop\n              jump\t// out\n                /* \"#utility.yul\":3668:3767   */\n            tag_141:\n                /* \"#utility.yul\":3720:3726   */\n              0x00\n                /* \"#utility.yul\":3754:3759   */\n              dup2\n                /* \"#utility.yul\":3748:3760   */\n              mload\n                /* \"#utility.yul\":3738:3760   */\n              swap1\n              pop\n                /* \"#utility.yul\":3668:3767   */\n              swap2\n              swap1\n              pop\n              jump\t// out\n                /* \"#utility.yul\":3773:3942   */\n            tag_142:\n                /* \"#utility.yul\":3857:3868   */\n              0x00\n                /* \"#utility.yul\":3891:3897   */\n              dup3\n                /* \"#utility.yul\":3886:3889   */\n              dup3\n                /* \"#utility.yul\":3879:3898   */\n              mstore\n                /* \"#utility.yul\":3931:3935   */\n              0x20\n                /* \"#utility.yul\":3926:3929   */\n              dup3\n                /* \"#utility.yul\":3922:3936   */\n              add\n                /* \"#utility.yul\":3907:3936   */\n              swap1\n              pop\n                /* \"#utility.yul\":3773:3942   */\n              swap3\n              swap2\n              pop\n              pop\n              jump\t// out\n                /* \"#utility.yul\":3948:4255   */\n            tag_143:\n                /* \"#utility.yul\":4016:4017   */\n              0x00\n                /* \"#utility.yul\":4026:4139   */\n            tag_210:\n                /* \"#utility.yul\":4040:4046   */\n              dup4\n                /* \"#utility.yul\":4037:4038   */\n              dup2\n                /* \"#utility.yul\":4034:4047   */\n              lt\n                /* \"#utility.yul\":4026:4139   */\n              iszero\n              tag_212\n              jumpi\n                /* \"#utility.yul\":4125:4126   */\n              dup1\n                /* \"#utility.yul\":4120:4123   */\n              dup3\n                /* \"#utility.yul\":4116:4127   */\n              add\n                /* \"#utility.yul\":4110:4128   */\n              mload\n                /* \"#utility.yul\":4106:4107   */\n              dup2\n                /* \"#utility.yul\":4101:4104   */\n              dup5\n                /* \"#utility.yul\":4097:4108   */\n              add\n                /* \"#utility.yul\":4090:4129   */\n              mstore\n                /* \"#utility.yul\":4062:4064   */\n              0x20\n                /* \"#utility.yul\":4059:4060   */\n              dup2\n                /* \"#utility.yul\":4055:4065   */\n              add\n                /* \"#utility.yul\":4050:4065   */\n              swap1\n              pop\n                /* \"#utility.yul\":4026:4139   */\n              jump(tag_210)\n            tag_212:\n                /* \"#utility.yul\":4157:4163   */\n              dup4\n                /* \"#utility.yul\":4154:4155   */\n              dup2\n                /* \"#utility.yul\":4151:4164   */\n              gt\n                /* \"#utility.yul\":4148:4249   */\n              iszero\n              tag_213\n              jumpi\n                /* \"#utility.yul\":4237:4238   */\n              0x00\n                /* \"#utility.yul\":4228:4234   */\n              dup5\n                /* \"#utility.yul\":4223:4226   */\n              dup5\n                /* \"#utility.yul\":4219:4235   */\n              add\n                /* \"#utility.yul\":4212:4239   */\n              mstore\n                /* \"#utility.yul\":4148:4249   */\n            tag_213:\n                /* \"#utility.yul\":3997:4255   */\n              pop\n                /* \"#utility.yul\":3948:4255   */\n              pop\n              pop\n              pop\n              jump\t// out\n                /* \"#utility.yul\":4261:4363   */\n            tag_144:\n                /* \"#utility.yul\":4302:4308   */\n              0x00\n                /* \"#utility.yul\":4353:4355   */\n              0x1f\n                /* \"#utility.yul\":4349:4356   */\n              not\n                /* \"#utility.yul\":4344:4346   */\n              0x1f\n                /* \"#utility.yul\":4337:4342   */\n              dup4\n                /* \"#utility.yul\":4333:4347   */\n              add\n                /* \"#utility.yul\":4329:4357   */\n              and\n                /* \"#utility.yul\":4319:4357   */\n              swap1\n              pop\n                /* \"#utility.yul\":4261:4363   */\n              swap2\n              swap1\n              pop\n              jump\t// out\n                /* \"#utility.yul\":4369:4733   */\n            tag_145:\n                /* \"#utility.yul\":4457:4460   */\n              0x00\n                /* \"#utility.yul\":4485:4524   */\n              tag_216\n                /* \"#utility.yul\":4518:4523   */\n              dup3\n                /* \"#utility.yul\":4485:4524   */\n              tag_141\n              jump\t// in\n            tag_216:\n                /* \"#utility.yul\":4540:4611   */\n              tag_217\n                /* \"#utility.yul\":4604:4610   */\n              dup2\n                /* \"#utility.yul\":4599:4602   */\n              dup6\n                /* \"#utility.yul\":4540:4611   */\n              tag_142\n              jump\t// in\n            tag_217:\n                /* \"#utility.yul\":4533:4611   */\n              swap4\n              pop\n                /* \"#utility.yul\":4620:4672   */\n              tag_218\n                /* \"#utility.yul\":4665:4671   */\n              dup2\n                /* \"#utility.yul\":4660:4663   */\n              dup6\n                /* \"#utility.yul\":4653:4657   */\n              0x20\n                /* \"#utility.yul\":4646:4651   */\n              dup7\n                /* \"#utility.yul\":4642:4658   */\n              add\n                /* \"#utility.yul\":4620:4672   */\n              tag_143\n              jump\t// in\n            tag_218:\n                /* \"#utility.yul\":4697:4726   */\n              tag_219\n                /* \"#utility.yul\":4719:4725   */\n              dup2\n                /* \"#utility.yul\":4697:4726   */\n              tag_144\n              jump\t// in\n            tag_219:\n                /* \"#utility.yul\":4692:4695   */\n              dup5\n                /* \"#utility.yul\":4688:4727   */\n              add\n                /* \"#utility.yul\":4681:4727   */\n              swap2\n              pop\n                /* \"#utility.yul\":4461:4733   */\n              pop\n                /* \"#utility.yul\":4369:4733   */\n              swap3\n              swap2\n              pop\n              pop\n              jump\t// out\n                /* \"#utility.yul\":4739:4843   */\n            tag_146:\n                /* \"#utility.yul\":4784:4791   */\n              0x00\n                /* \"#utility.yul\":4813:4837   */\n              tag_221\n                /* \"#utility.yul\":4831:4836   */\n              dup3\n                /* \"#utility.yul\":4813:4837   */\n              tag_133\n              jump\t// in\n            tag_221:\n                /* \"#utility.yul\":4802:4837   */\n              swap1\n              pop\n                /* \"#utility.yul\":4739:4843   */\n              swap2\n              swap1\n              pop\n              jump\t// out\n                /* \"#utility.yul\":4849:4991   */\n            tag_147:\n                /* \"#utility.yul\":4952:4984   */\n              tag_223\n                /* \"#utility.yul\":4978:4983   */\n              dup2\n                /* \"#utility.yul\":4952:4984   */\n              tag_146\n              jump\t// in\n            tag_223:\n                /* \"#utility.yul\":4947:4950   */\n              dup3\n                /* \"#utility.yul\":4940:4985   */\n              mstore\n                /* \"#utility.yul\":4849:4991   */\n              pop\n              pop\n              jump\t// out\n                /* \"#utility.yul\":4997:5772   */\n            tag_51:\n                /* \"#utility.yul\":5232:5236   */\n              0x00\n                /* \"#utility.yul\":5270:5273   */\n              0xa0\n                /* \"#utility.yul\":5259:5268   */\n              dup3\n                /* \"#utility.yul\":5255:5274   */\n              add\n                /* \"#utility.yul\":5247:5274   */\n              swap1\n              pop\n                /* \"#utility.yul\":5320:5329   */\n              dup2\n                /* \"#utility.yul\":5314:5318   */\n              dup2\n                /* \"#utility.yul\":5310:5330   */\n              sub\n                /* \"#utility.yul\":5306:5307   */\n              0x00\n                /* \"#utility.yul\":5295:5304   */\n              dup4\n                /* \"#utility.yul\":5291:5308   */\n              add\n                /* \"#utility.yul\":5284:5331   */\n              mstore\n                /* \"#utility.yul\":5348:5426   */\n              tag_225\n                /* \"#utility.yul\":5421:5425   */\n              dup2\n                /* \"#utility.yul\":5412:5418   */\n              dup9\n                /* \"#utility.yul\":5348:5426   */\n              tag_145\n              jump\t// in\n            tag_225:\n                /* \"#utility.yul\":5340:5426   */\n              swap1\n              pop\n                /* \"#utility.yul\":5436:5508   */\n              tag_226\n                /* \"#utility.yul\":5504:5506   */\n              0x20\n                /* \"#utility.yul\":5493:5502   */\n              dup4\n                /* \"#utility.yul\":5489:5507   */\n              add\n                /* \"#utility.yul\":5480:5486   */\n              dup8\n                /* \"#utility.yul\":5436:5508   */\n              tag_139\n              jump\t// in\n            tag_226:\n                /* \"#utility.yul\":5518:5606   */\n              tag_227\n                /* \"#utility.yul\":5602:5604   */\n              0x40\n                /* \"#utility.yul\":5591:5600   */\n              dup4\n                /* \"#utility.yul\":5587:5605   */\n              add\n                /* \"#utility.yul\":5578:5584   */\n              dup7\n                /* \"#utility.yul\":5518:5606   */\n              tag_147\n              jump\t// in\n            tag_227:\n                /* \"#utility.yul\":5616:5682   */\n              tag_228\n                /* \"#utility.yul\":5678:5680   */\n              0x60\n                /* \"#utility.yul\":5667:5676   */\n              dup4\n                /* \"#utility.yul\":5663:5681   */\n              add\n                /* \"#utility.yul\":5654:5660   */\n              dup6\n                /* \"#utility.yul\":5616:5682   */\n              tag_138\n              jump\t// in\n            tag_228:\n                /* \"#utility.yul\":5692:5765   */\n              tag_229\n                /* \"#utility.yul\":5760:5763   */\n              0x80\n                /* \"#utility.yul\":5749:5758   */\n              dup4\n                /* \"#utility.yul\":5745:5764   */\n              add\n                /* \"#utility.yul\":5736:5742   */\n              dup5\n                /* \"#utility.yul\":5692:5765   */\n              tag_139\n              jump\t// in\n            tag_229:\n                /* \"#utility.yul\":4997:5772   */\n              swap7\n              swap6\n              pop\n              pop\n              pop\n              pop\n              pop\n              pop\n              jump\t// out\n                /* \"#utility.yul\":5778:5895   */\n            tag_148:\n                /* \"#utility.yul\":5887:5888   */\n              0x00\n                /* \"#utility.yul\":5884:5885   */\n              dup1\n                /* \"#utility.yul\":5877:5889   */\n              revert\n                /* \"#utility.yul\":5901:6018   */\n            tag_149:\n                /* \"#utility.yul\":6010:6011   */\n              0x00\n                /* \"#utility.yul\":6007:6008   */\n              dup1\n                /* \"#utility.yul\":6000:6012   */\n              revert\n                /* \"#utility.yul\":6024:6204   */\n            tag_150:\n                /* \"#utility.yul\":6072:6149   */\n              0x4e487b7100000000000000000000000000000000000000000000000000000000\n                /* \"#utility.yul\":6069:6070   */\n              0x00\n                /* \"#utility.yul\":6062:6150   */\n              mstore\n                /* \"#utility.yul\":6169:6173   */\n              0x41\n                /* \"#utility.yul\":6166:6167   */\n              0x04\n                /* \"#utility.yul\":6159:6174   */\n              mstore\n                /* \"#utility.yul\":6193:6197   */\n              0x24\n                /* \"#utility.yul\":6190:6191   */\n              0x00\n                /* \"#utility.yul\":6183:6198   */\n              revert\n                /* \"#utility.yul\":6210:6491   */\n            tag_151:\n                /* \"#utility.yul\":6293:6320   */\n              tag_234\n                /* \"#utility.yul\":6315:6319   */\n              dup3\n                /* \"#utility.yul\":6293:6320   */\n              tag_144\n              jump\t// in\n            tag_234:\n                /* \"#utility.yul\":6285:6291   */\n              dup2\n                /* \"#utility.yul\":6281:6321   */\n              add\n                /* \"#utility.yul\":6423:6429   */\n              dup2\n                /* \"#utility.yul\":6411:6421   */\n              dup2\n                /* \"#utility.yul\":6408:6430   */\n              lt\n                /* \"#utility.yul\":6387:6405   */\n              0xffffffffffffffff\n                /* \"#utility.yul\":6375:6385   */\n              dup3\n                /* \"#utility.yul\":6372:6406   */\n              gt\n                /* \"#utility.yul\":6369:6431   */\n              or\n                /* \"#utility.yul\":6366:6454   */\n              iszero\n              tag_235\n              jumpi\n                /* \"#utility.yul\":6434:6452   */\n              tag_236\n              tag_150\n              jump\t// in\n            tag_236:\n                /* \"#utility.yul\":6366:6454   */\n            tag_235:\n                /* \"#utility.yul\":6474:6484   */\n              dup1\n                /* \"#utility.yul\":6470:6472   */\n              0x40\n                /* \"#utility.yul\":6463:6485   */\n              mstore\n                /* \"#utility.yul\":6253:6491   */\n              pop\n                /* \"#utility.yul\":6210:6491   */\n              pop\n              pop\n              jump\t// out\n                /* \"#utility.yul\":6497:6626   */\n            tag_152:\n                /* \"#utility.yul\":6531:6537   */\n              0x00\n                /* \"#utility.yul\":6558:6578   */\n              tag_238\n              tag_127\n              jump\t// in\n            tag_238:\n                /* \"#utility.yul\":6548:6578   */\n              swap1\n              pop\n                /* \"#utility.yul\":6587:6620   */\n              tag_239\n                /* \"#utility.yul\":6615:6619   */\n              dup3\n                /* \"#utility.yul\":6607:6613   */\n              dup3\n                /* \"#utility.yul\":6587:6620   */\n              tag_151\n              jump\t// in\n            tag_239:\n                /* \"#utility.yul\":6497:6626   */\n              swap2\n              swap1\n              pop\n              jump\t// out\n                /* \"#utility.yul\":6632:6940   */\n            tag_153:\n                /* \"#utility.yul\":6694:6698   */\n              0x00\n                /* \"#utility.yul\":6784:6802   */\n              0xffffffffffffffff\n                /* \"#utility.yul\":6776:6782   */\n              dup3\n                /* \"#utility.yul\":6773:6803   */\n              gt\n                /* \"#utility.yul\":6770:6826   */\n              iszero\n              tag_241\n              jumpi\n                /* \"#utility.yul\":6806:6824   */\n              tag_242\n              tag_150\n              jump\t// in\n            tag_242:\n                /* \"#utility.yul\":6770:6826   */\n            tag_241:\n                /* \"#utility.yul\":6844:6873   */\n              tag_243\n                /* \"#utility.yul\":6866:6872   */\n              dup3\n                /* \"#utility.yul\":6844:6873   */\n              tag_144\n              jump\t// in\n            tag_243:\n                /* \"#utility.yul\":6836:6873   */\n              swap1\n              pop\n                /* \"#utility.yul\":6928:6932   */\n              0x20\n                /* \"#utility.yul\":6922:6926   */\n              dup2\n                /* \"#utility.yul\":6918:6933   */\n              add\n                /* \"#utility.yul\":6910:6933   */\n              swap1\n              pop\n                /* \"#utility.yul\":6632:6940   */\n              swap2\n              swap1\n              pop\n              jump\t// out\n                /* \"#utility.yul\":6946:7100   */\n            tag_154:\n                /* \"#utility.yul\":7030:7036   */\n              dup3\n                /* \"#utility.yul\":7025:7028   */\n              dup2\n                /* \"#utility.yul\":7020:7023   */\n              dup4\n                /* \"#utility.yul\":7007:7037   */\n              calldatacopy\n                /* \"#utility.yul\":7092:7093   */\n              0x00\n                /* \"#utility.yul\":7083:7089   */\n              dup4\n                /* \"#utility.yul\":7078:7081   */\n              dup4\n                /* \"#utility.yul\":7074:7090   */\n              add\n                /* \"#utility.yul\":7067:7094   */\n              mstore\n                /* \"#utility.yul\":6946:7100   */\n              pop\n              pop\n              pop\n              jump\t// out\n                /* \"#utility.yul\":7106:7518   */\n            tag_155:\n                /* \"#utility.yul\":7184:7189   */\n              0x00\n                /* \"#utility.yul\":7209:7275   */\n              tag_246\n                /* \"#utility.yul\":7225:7274   */\n              tag_247\n                /* \"#utility.yul\":7267:7273   */\n              dup5\n                /* \"#utility.yul\":7225:7274   */\n              tag_153\n              jump\t// in\n            tag_247:\n                /* \"#utility.yul\":7209:7275   */\n              tag_152\n              jump\t// in\n            tag_246:\n                /* \"#utility.yul\":7200:7275   */\n              swap1\n              pop\n                /* \"#utility.yul\":7298:7304   */\n              dup3\n                /* \"#utility.yul\":7291:7296   */\n              dup2\n                /* \"#utility.yul\":7284:7305   */\n              mstore\n                /* \"#utility.yul\":7336:7340   */\n              0x20\n                /* \"#utility.yul\":7329:7334   */\n              dup2\n                /* \"#utility.yul\":7325:7341   */\n              add\n                /* \"#utility.yul\":7374:7377   */\n              dup5\n                /* \"#utility.yul\":7365:7371   */\n              dup5\n                /* \"#utility.yul\":7360:7363   */\n              dup5\n                /* \"#utility.yul\":7356:7372   */\n              add\n                /* \"#utility.yul\":7353:7378   */\n              gt\n                /* \"#utility.yul\":7350:7462   */\n              iszero\n              tag_248\n              jumpi\n                /* \"#utility.yul\":7381:7460   */\n              tag_249\n              tag_149\n              jump\t// in\n            tag_249:\n                /* \"#utility.yul\":7350:7462   */\n            tag_248:\n                /* \"#utility.yul\":7471:7512   */\n              tag_250\n                /* \"#utility.yul\":7505:7511   */\n              dup5\n                /* \"#utility.yul\":7500:7503   */\n              dup3\n                /* \"#utility.yul\":7495:7498   */\n              dup6\n                /* \"#utility.yul\":7471:7512   */\n              tag_154\n              jump\t// in\n            tag_250:\n                /* \"#utility.yul\":7190:7518   */\n              pop\n                /* \"#utility.yul\":7106:7518   */\n              swap4\n              swap3\n              pop\n              pop\n              pop\n              jump\t// out\n                /* \"#utility.yul\":7538:7878   */\n            tag_156:\n                /* \"#utility.yul\":7594:7599   */\n              0x00\n                /* \"#utility.yul\":7643:7646   */\n              dup3\n                /* \"#utility.yul\":7636:7640   */\n              0x1f\n                /* \"#utility.yul\":7628:7634   */\n              dup4\n                /* \"#utility.yul\":7624:7641   */\n              add\n                /* \"#utility.yul\":7620:7647   */\n              slt\n                /* \"#utility.yul\":7610:7732   */\n              tag_252\n              jumpi\n                /* \"#utility.yul\":7651:7730   */\n              tag_253\n              tag_148\n              jump\t// in\n            tag_253:\n                /* \"#utility.yul\":7610:7732   */\n            tag_252:\n                /* \"#utility.yul\":7768:7774   */\n              dup2\n                /* \"#utility.yul\":7755:7775   */\n              calldataload\n                /* \"#utility.yul\":7793:7872   */\n              tag_254\n                /* \"#utility.yul\":7868:7871   */\n              dup5\n                /* \"#utility.yul\":7860:7866   */\n              dup3\n                /* \"#utility.yul\":7853:7857   */\n              0x20\n                /* \"#utility.yul\":7845:7851   */\n              dup7\n                /* \"#utility.yul\":7841:7858   */\n              add\n                /* \"#utility.yul\":7793:7872   */\n              tag_155\n              jump\t// in\n            tag_254:\n                /* \"#utility.yul\":7784:7872   */\n              swap2\n              pop\n                /* \"#utility.yul\":7600:7878   */\n              pop\n                /* \"#utility.yul\":7538:7878   */\n              swap3\n              swap2\n              pop\n              pop\n              jump\t// out\n                /* \"#utility.yul\":7884:8022   */\n            tag_157:\n                /* \"#utility.yul\":7965:7997   */\n              tag_256\n                /* \"#utility.yul\":7991:7996   */\n              dup2\n                /* \"#utility.yul\":7965:7997   */\n              tag_146\n              jump\t// in\n            tag_256:\n                /* \"#utility.yul\":7958:7963   */\n              dup2\n                /* \"#utility.yul\":7955:7998   */\n              eq\n                /* \"#utility.yul\":7945:8016   */\n              tag_257\n              jumpi\n                /* \"#utility.yul\":8012:8013   */\n              0x00\n                /* \"#utility.yul\":8009:8010   */\n              dup1\n                /* \"#utility.yul\":8002:8014   */\n              revert\n                /* \"#utility.yul\":7945:8016   */\n            tag_257:\n                /* \"#utility.yul\":7884:8022   */\n              pop\n              jump\t// out\n                /* \"#utility.yul\":8028:8183   */\n            tag_158:\n                /* \"#utility.yul\":8082:8087   */\n              0x00\n                /* \"#utility.yul\":8120:8126   */\n              dup2\n                /* \"#utility.yul\":8107:8127   */\n              calldataload\n                /* \"#utility.yul\":8098:8127   */\n              swap1\n              pop\n                /* \"#utility.yul\":8136:8177   */\n              tag_259\n                /* \"#utility.yul\":8171:8176   */\n              dup2\n                /* \"#utility.yul\":8136:8177   */\n              tag_157\n              jump\t// in\n            tag_259:\n                /* \"#utility.yul\":8028:8183   */\n              swap3\n              swap2\n              pop\n              pop\n              jump\t// out\n                /* \"#utility.yul\":8189:9004   */\n            tag_55:\n                /* \"#utility.yul\":8284:8290   */\n              0x00\n                /* \"#utility.yul\":8292:8298   */\n              dup1\n                /* \"#utility.yul\":8300:8306   */\n              0x00\n                /* \"#utility.yul\":8349:8351   */\n              0x60\n                /* \"#utility.yul\":8337:8346   */\n              dup5\n                /* \"#utility.yul\":8328:8335   */\n              dup7\n                /* \"#utility.yul\":8324:8347   */\n              sub\n                /* \"#utility.yul\":8320:8352   */\n              slt\n                /* \"#utility.yul\":8317:8436   */\n              iszero\n              tag_261\n              jumpi\n                /* \"#utility.yul\":8355:8434   */\n              tag_262\n              tag_128\n              jump\t// in\n            tag_262:\n                /* \"#utility.yul\":8317:8436   */\n            tag_261:\n                /* \"#utility.yul\":8503:8504   */\n              0x00\n                /* \"#utility.yul\":8492:8501   */\n              dup5\n                /* \"#utility.yul\":8488:8505   */\n              add\n                /* \"#utility.yul\":8475:8506   */\n              calldataload\n                /* \"#utility.yul\":8533:8551   */\n              0xffffffffffffffff\n                /* \"#utility.yul\":8525:8531   */\n              dup2\n                /* \"#utility.yul\":8522:8552   */\n              gt\n                /* \"#utility.yul\":8519:8636   */\n              iszero\n              tag_263\n              jumpi\n                /* \"#utility.yul\":8555:8634   */\n              tag_264\n              tag_129\n              jump\t// in\n            tag_264:\n                /* \"#utility.yul\":8519:8636   */\n            tag_263:\n                /* \"#utility.yul\":8660:8723   */\n              tag_265\n                /* \"#utility.yul\":8715:8722   */\n              dup7\n                /* \"#utility.yul\":8706:8712   */\n              dup3\n                /* \"#utility.yul\":8695:8704   */\n              dup8\n                /* \"#utility.yul\":8691:8713   */\n              add\n                /* \"#utility.yul\":8660:8723   */\n              tag_156\n              jump\t// in\n            tag_265:\n                /* \"#utility.yul\":8650:8723   */\n              swap4\n              pop\n                /* \"#utility.yul\":8446:8733   */\n              pop\n                /* \"#utility.yul\":8772:8774   */\n              0x20\n                /* \"#utility.yul\":8798:8851   */\n              tag_266\n                /* \"#utility.yul\":8843:8850   */\n              dup7\n                /* \"#utility.yul\":8834:8840   */\n              dup3\n                /* \"#utility.yul\":8823:8832   */\n              dup8\n                /* \"#utility.yul\":8819:8841   */\n              add\n                /* \"#utility.yul\":8798:8851   */\n              tag_132\n              jump\t// in\n            tag_266:\n                /* \"#utility.yul\":8788:8851   */\n              swap3\n              pop\n                /* \"#utility.yul\":8743:8861   */\n              pop\n                /* \"#utility.yul\":8900:8902   */\n              0x40\n                /* \"#utility.yul\":8926:8987   */\n              tag_267\n                /* \"#utility.yul\":8979:8986   */\n              dup7\n                /* \"#utility.yul\":8970:8976   */\n              dup3\n                /* \"#utility.yul\":8959:8968   */\n              dup8\n                /* \"#utility.yul\":8955:8977   */\n              add\n                /* \"#utility.yul\":8926:8987   */\n              tag_158\n              jump\t// in\n            tag_267:\n                /* \"#utility.yul\":8916:8987   */\n              swap2\n              pop\n                /* \"#utility.yul\":8871:8997   */\n              pop\n                /* \"#utility.yul\":8189:9004   */\n              swap3\n              pop\n              swap3\n              pop\n              swap3\n              jump\t// out\n                /* \"#utility.yul\":9010:9190   */\n            tag_76:\n                /* \"#utility.yul\":9058:9135   */\n              0x4e487b7100000000000000000000000000000000000000000000000000000000\n                /* \"#utility.yul\":9055:9056   */\n              0x00\n                /* \"#utility.yul\":9048:9136   */\n              mstore\n                /* \"#utility.yul\":9155:9159   */\n              0x32\n                /* \"#utility.yul\":9152:9153   */\n              0x04\n                /* \"#utility.yul\":9145:9160   */\n              mstore\n                /* \"#utility.yul\":9179:9183   */\n              0x24\n                /* \"#utility.yul\":9176:9177   */\n              0x00\n                /* \"#utility.yul\":9169:9184   */\n              revert\n                /* \"#utility.yul\":9196:9376   */\n            tag_159:\n                /* \"#utility.yul\":9244:9321   */\n              0x4e487b7100000000000000000000000000000000000000000000000000000000\n                /* \"#utility.yul\":9241:9242   */\n              0x00\n                /* \"#utility.yul\":9234:9322   */\n              mstore\n                /* \"#utility.yul\":9341:9345   */\n              0x12\n                /* \"#utility.yul\":9338:9339   */\n              0x04\n                /* \"#utility.yul\":9331:9346   */\n              mstore\n                /* \"#utility.yul\":9365:9369   */\n              0x24\n                /* \"#utility.yul\":9362:9363   */\n              0x00\n                /* \"#utility.yul\":9355:9370   */\n              revert\n                /* \"#utility.yul\":9382:9562   */\n            tag_160:\n                /* \"#utility.yul\":9430:9507   */\n              0x4e487b7100000000000000000000000000000000000000000000000000000000\n                /* \"#utility.yul\":9427:9428   */\n              0x00\n                /* \"#utility.yul\":9420:9508   */\n              mstore\n                /* \"#utility.yul\":9527:9531   */\n              0x11\n                /* \"#utility.yul\":9524:9525   */\n              0x04\n                /* \"#utility.yul\":9517:9532   */\n              mstore\n                /* \"#utility.yul\":9551:9555   */\n              0x24\n                /* \"#utility.yul\":9548:9549   */\n              0x00\n                /* \"#utility.yul\":9541:9556   */\n              revert\n                /* \"#utility.yul\":9568:9753   */\n            tag_79:\n                /* \"#utility.yul\":9608:9609   */\n              0x00\n                /* \"#utility.yul\":9625:9645   */\n              tag_272\n                /* \"#utility.yul\":9643:9644   */\n              dup3\n                /* \"#utility.yul\":9625:9645   */\n              tag_130\n              jump\t// in\n            tag_272:\n                /* \"#utility.yul\":9620:9645   */\n              swap2\n              pop\n                /* \"#utility.yul\":9659:9679   */\n              tag_273\n                /* \"#utility.yul\":9677:9678   */\n              dup4\n                /* \"#utility.yul\":9659:9679   */\n              tag_130\n              jump\t// in\n            tag_273:\n                /* \"#utility.yul\":9654:9679   */\n              swap3\n              pop\n                /* \"#utility.yul\":9698:9699   */\n              dup3\n                /* \"#utility.yul\":9688:9723   */\n              tag_274\n              jumpi\n                /* \"#utility.yul\":9703:9721   */\n              tag_275\n              tag_159\n              jump\t// in\n            tag_275:\n                /* \"#utility.yul\":9688:9723   */\n            tag_274:\n                /* \"#utility.yul\":9745:9746   */\n              dup3\n                /* \"#utility.yul\":9742:9743   */\n              dup3\n                /* \"#utility.yul\":9738:9747   */\n              div\n                /* \"#utility.yul\":9733:9747   */\n              swap1\n              pop\n                /* \"#utility.yul\":9568:9753   */\n              swap3\n              swap2\n              pop\n              pop\n              jump\t// out\n                /* \"#utility.yul\":9759:9950   */\n            tag_86:\n                /* \"#utility.yul\":9799:9803   */\n              0x00\n                /* \"#utility.yul\":9819:9839   */\n              tag_277\n                /* \"#utility.yul\":9837:9838   */\n              dup3\n                /* \"#utility.yul\":9819:9839   */\n              tag_130\n              jump\t// in\n            tag_277:\n                /* \"#utility.yul\":9814:9839   */\n              swap2\n              pop\n                /* \"#utility.yul\":9853:9873   */\n              tag_278\n                /* \"#utility.yul\":9871:9872   */\n              dup4\n                /* \"#utility.yul\":9853:9873   */\n              tag_130\n              jump\t// in\n            tag_278:\n                /* \"#utility.yul\":9848:9873   */\n              swap3\n              pop\n                /* \"#utility.yul\":9892:9893   */\n              dup3\n                /* \"#utility.yul\":9889:9890   */\n              dup3\n                /* \"#utility.yul\":9886:9894   */\n              lt\n                /* \"#utility.yul\":9883:9917   */\n              iszero\n              tag_279\n              jumpi\n                /* \"#utility.yul\":9897:9915   */\n              tag_280\n              tag_160\n              jump\t// in\n            tag_280:\n                /* \"#utility.yul\":9883:9917   */\n            tag_279:\n                /* \"#utility.yul\":9942:9943   */\n              dup3\n                /* \"#utility.yul\":9939:9940   */\n              dup3\n                /* \"#utility.yul\":9935:9944   */\n              sub\n                /* \"#utility.yul\":9927:9944   */\n              swap1\n              pop\n                /* \"#utility.yul\":9759:9950   */\n              swap3\n              swap2\n              pop\n              pop\n              jump\t// out\n                /* \"#utility.yul\":9956:10136   */\n            tag_161:\n                /* \"#utility.yul\":10004:10081   */\n              0x4e487b7100000000000000000000000000000000000000000000000000000000\n                /* \"#utility.yul\":10001:10002   */\n              0x00\n                /* \"#utility.yul\":9994:10082   */\n              mstore\n                /* \"#utility.yul\":10101:10105   */\n              0x22\n                /* \"#utility.yul\":10098:10099   */\n              0x04\n                /* \"#utility.yul\":10091:10106   */\n              mstore\n                /* \"#utility.yul\":10125:10129   */\n              0x24\n                /* \"#utility.yul\":10122:10123   */\n              0x00\n                /* \"#utility.yul\":10115:10130   */\n              revert\n                /* \"#utility.yul\":10142:10462   */\n            tag_92:\n                /* \"#utility.yul\":10186:10192   */\n              0x00\n                /* \"#utility.yul\":10223:10224   */\n              0x02\n                /* \"#utility.yul\":10217:10221   */\n              dup3\n                /* \"#utility.yul\":10213:10225   */\n              div\n                /* \"#utility.yul\":10203:10225   */\n              swap1\n              pop\n                /* \"#utility.yul\":10270:10271   */\n              0x01\n                /* \"#utility.yul\":10264:10268   */\n              dup3\n                /* \"#utility.yul\":10260:10272   */\n              and\n                /* \"#utility.yul\":10291:10309   */\n              dup1\n                /* \"#utility.yul\":10281:10362   */\n              tag_283\n              jumpi\n                /* \"#utility.yul\":10347:10351   */\n              0x7f\n                /* \"#utility.yul\":10339:10345   */\n              dup3\n                /* \"#utility.yul\":10335:10352   */\n              and\n                /* \"#utility.yul\":10325:10352   */\n              swap2\n              pop\n                /* \"#utility.yul\":10281:10362   */\n            tag_283:\n                /* \"#utility.yul\":10409:10411   */\n              0x20\n                /* \"#utility.yul\":10401:10407   */\n              dup3\n                /* \"#utility.yul\":10398:10412   */\n              lt\n                /* \"#utility.yul\":10378:10396   */\n              dup2\n                /* \"#utility.yul\":10375:10413   */\n              eq\n                /* \"#utility.yul\":10372:10456   */\n              iszero\n              tag_284\n              jumpi\n                /* \"#utility.yul\":10428:10446   */\n              tag_285\n              tag_161\n              jump\t// in\n            tag_285:\n                /* \"#utility.yul\":10372:10456   */\n            tag_284:\n                /* \"#utility.yul\":10193:10462   */\n              pop\n                /* \"#utility.yul\":10142:10462   */\n              swap2\n              swap1\n              pop\n              jump\t// out\n                /* \"#utility.yul\":10468:10701   */\n            tag_107:\n                /* \"#utility.yul\":10507:10510   */\n              0x00\n                /* \"#utility.yul\":10530:10554   */\n              tag_287\n                /* \"#utility.yul\":10548:10553   */\n              dup3\n                /* \"#utility.yul\":10530:10554   */\n              tag_130\n              jump\t// in\n            tag_287:\n                /* \"#utility.yul\":10521:10554   */\n              swap2\n              pop\n                /* \"#utility.yul\":10576:10642   */\n              0xffffffffffffffffffffffffffffffffffffffffffffffffffffffffffffffff\n                /* \"#utility.yul\":10569:10574   */\n              dup3\n                /* \"#utility.yul\":10566:10643   */\n              eq\n                /* \"#utility.yul\":10563:10666   */\n              iszero\n              tag_288\n              jumpi\n                /* \"#utility.yul\":10646:10664   */\n              tag_289\n              tag_160\n              jump\t// in\n            tag_289:\n                /* \"#utility.yul\":10563:10666   */\n            tag_288:\n                /* \"#utility.yul\":10693:10694   */\n              0x01\n                /* \"#utility.yul\":10686:10691   */\n              dup3\n                /* \"#utility.yul\":10682:10695   */\n              add\n                /* \"#utility.yul\":10675:10695   */\n              swap1\n              pop\n                /* \"#utility.yul\":10468:10701   */\n              swap2\n              swap1\n              pop\n              jump\t// out\n                /* \"#utility.yul\":10707:11012   */\n            tag_109:\n                /* \"#utility.yul\":10747:10750   */\n              0x00\n                /* \"#utility.yul\":10766:10786   */\n              tag_291\n                /* \"#utility.yul\":10784:10785   */\n              dup3\n                /* \"#utility.yul\":10766:10786   */\n              tag_130\n              jump\t// in\n            tag_291:\n                /* \"#utility.yul\":10761:10786   */\n              swap2\n              pop\n                /* \"#utility.yul\":10800:10820   */\n              tag_292\n                /* \"#utility.yul\":10818:10819   */\n              dup4\n                /* \"#utility.yul\":10800:10820   */\n              tag_130\n              jump\t// in\n            tag_292:\n                /* \"#utility.yul\":10795:10820   */\n              swap3\n              pop\n                /* \"#utility.yul\":10954:10955   */\n              dup3\n                /* \"#utility.yul\":10886:10952   */\n              0xffffffffffffffffffffffffffffffffffffffffffffffffffffffffffffffff\n                /* \"#utility.yul\":10882:10956   */\n              sub\n                /* \"#utility.yul\":10879:10880   */\n              dup3\n                /* \"#utility.yul\":10876:10957   */\n              gt\n                /* \"#utility.yul\":10873:10980   */\n              iszero\n              tag_293\n              jumpi\n                /* \"#utility.yul\":10960:10978   */\n              tag_294\n              tag_160\n              jump\t// in\n            tag_294:\n                /* \"#utility.yul\":10873:10980   */\n            tag_293:\n                /* \"#utility.yul\":11004:11005   */\n              dup3\n                /* \"#utility.yul\":11001:11002   */\n              dup3\n                /* \"#utility.yul\":10997:11006   */\n              add\n                /* \"#utility.yul\":10990:11006   */\n              swap1\n              pop\n                /* \"#utility.yul\":10707:11012   */\n              swap3\n              swap2\n              pop\n              pop\n              jump\t// out\n\n            auxdata: 0xa2646970667358221220177811eb5f77ef7d8337243e97cac626304a079d5e2140ca9dc27abf67773c3464736f6c634300080b0033\n        }\n    }\n\n    auxdata: 0xa26469706673582212206963646f65e7eea4fee5444dc05aba8aea98f67c3b77d803764afecf0c0ba51a64736f6c634300080b0033\n}\n","bytecode":{"linkReferences":{},"object":"608060405234801561001057600080fd5b50611666806100206000396000f3fe608060405234801561001057600080fd5b50600436106100415760003560e01c80634acb9d4f146100465780639ad1ee1014610064578063a3303a7514610094575b600080fd5b61004e6100b0565b60405161005b919061031b565b60405180910390f35b61007e60048036038101906100799190610378565b61013e565b60405161008b91906103b4565b60405180910390f35b6100ae60048036038101906100a99190610378565b61017d565b005b6060600080548060200260200160405190810160405280929190818152602001828054801561013457602002820191906000526020600020905b8160009054906101000a900473ffffffffffffffffffffffffffffffffffffffff1673ffffffffffffffffffffffffffffffffffffffff16815260200190600101908083116100ea575b5050505050905090565b6000818154811061014e57600080fd5b906000526020600020016000915054906101000a900473ffffffffffffffffffffffffffffffffffffffff1681565b6000813360405161018d9061021e565b6101989291906103de565b604051809103906000f0801580156101b4573d6000803e3d6000fd5b5090506000819080600181540180825580915050600190039060005260206000200160009091909190916101000a81548173ffffffffffffffffffffffffffffffffffffffff021916908373ffffffffffffffffffffffffffffffffffffffff1602179055505050565b6112298061040883390190565b600081519050919050565b600082825260208201905092915050565b6000819050602082019050919050565b600073ffffffffffffffffffffffffffffffffffffffff82169050919050565b600061028282610257565b9050919050565b61029281610277565b82525050565b60006102a48383610289565b60208301905092915050565b6000602082019050919050565b60006102c88261022b565b6102d28185610236565b93506102dd83610247565b8060005b8381101561030e5781516102f58882610298565b9750610300836102b0565b9250506001810190506102e1565b5085935050505092915050565b6000602082019050818103600083015261033581846102bd565b905092915050565b600080fd5b6000819050919050565b61035581610342565b811461036057600080fd5b50565b6000813590506103728161034c565b92915050565b60006020828403121561038e5761038d61033d565b5b600061039c84828501610363565b91505092915050565b6103ae81610277565b82525050565b60006020820190506103c960008301846103a5565b92915050565b6103d881610342565b82525050565b60006040820190506103f360008301856103cf565b61040060208301846103a5565b939250505056fe60806040523480156200001157600080fd5b50604051620012293803806200122983398181016040528101906200003791906200012b565b806000806101000a81548173ffffffffffffffffffffffffffffffffffffffff021916908373ffffffffffffffffffffffffffffffffffffffff16021790555081600381905550505062000172565b600080fd5b6000819050919050565b620000a0816200008b565b8114620000ac57600080fd5b50565b600081519050620000c08162000095565b92915050565b600073ffffffffffffffffffffffffffffffffffffffff82169050919050565b6000620000f382620000c6565b9050919050565b6200010581620000e6565b81146200011157600080fd5b50565b6000815190506200012581620000fa565b92915050565b6000806040838503121562000145576200014462000086565b5b60006200015585828601620000af565b9250506020620001688582860162000114565b9150509250929050565b6110a780620001826000396000f3fe6080604052600436106100a75760003560e01c806381d12c581161006457806381d12c58146101c25780638a9cfd5514610203578063b69ef8a81461022c578063bb0c829814610257578063d7bb99ba14610282578063d7d1bbdb1461028c576100a7565b806303441006146100ac5780630a144391146100d5578063128e9be6146101125780633410452a1461013d5780634051ddac14610168578063481c6a7514610197575b600080fd5b3480156100b857600080fd5b506100d360048036038101906100ce9190610a06565b6102b5565b005b3480156100e157600080fd5b506100fc60048036038101906100f79190610a91565b61042d565b6040516101099190610ad9565b60405180910390f35b34801561011e57600080fd5b5061012761044d565b6040516101349190610b03565b60405180910390f35b34801561014957600080fd5b50610152610453565b60405161015f9190610b03565b60405180910390f35b34801561017457600080fd5b5061017d610460565b60405161018e959493929190610b2d565b60405180910390f35b3480156101a357600080fd5b506101ac6104a9565b6040516101b99190610b80565b60405180910390f35b3480156101ce57600080fd5b506101e960048036038101906101e49190610a06565b6104cd565b6040516101fa959493929190610c55565b60405180910390f35b34801561020f57600080fd5b5061022a60048036038101906102259190610e10565b6105c8565b005b34801561023857600080fd5b506102416106d6565b60405161024e9190610b03565b60405180910390f35b34801561026357600080fd5b5061026c6106dc565b6040516102799190610b03565b60405180910390f35b61028a6106e2565b005b34801561029857600080fd5b506102b360048036038101906102ae9190610a06565b6107cc565b005b60008054906101000a900473ffffffffffffffffffffffffffffffffffffffff1673ffffffffffffffffffffffffffffffffffffffff163373ffffffffffffffffffffffffffffffffffffffff161461030d57600080fd5b60006002828154811061032357610322610e7f565b5b9060005260206000209060050201905060026004546103429190610f0c565b81600301541161035157600080fd5b8060010154600554101561036457600080fd5b8060020160149054906101000a900460ff161561038057600080fd5b8060020160009054906101000a900473ffffffffffffffffffffffffffffffffffffffff1673ffffffffffffffffffffffffffffffffffffffff166108fc82600101549081150290604051600060405180830381858888f193505050501580156103ee573d6000803e3d6000fd5b508060010154600560008282546104059190610f3d565b9250508190555060018160020160146101000a81548160ff0219169083151502179055505050565b60016020528060005260406000206000915054906101000a900460ff1681565b60045481565b6000600280549050905090565b600080600080600060035460055460028054905060045460008054906101000a900473ffffffffffffffffffffffffffffffffffffffff16945094509450945094509091929394565b60008054906101000a900473ffffffffffffffffffffffffffffffffffffffff1681565b600281815481106104dd57600080fd5b906000526020600020906005020160009150905080600001805461050090610fa0565b80601f016020809104026020016040519081016040528092919081815260200182805461052c90610fa0565b80156105795780601f1061054e57610100808354040283529160200191610579565b820191906000526020600020905b81548152906001019060200180831161055c57829003601f168201915b5050505050908060010154908060020160009054906101000a900473ffffffffffffffffffffffffffffffffffffffff16908060020160149054906101000a900460ff16908060030154905085565b60008054906101000a900473ffffffffffffffffffffffffffffffffffffffff1673ffffffffffffffffffffffffffffffffffffffff163373ffffffffffffffffffffffffffffffffffffffff161461062057600080fd5b6000600260018160018154018082558091505003906000526020600020906005020190508381600001908051906020019061065c929190610919565b50828160010181905550818160020160006101000a81548173ffffffffffffffffffffffffffffffffffffffff021916908373ffffffffffffffffffffffffffffffffffffffff16021790555060008160020160146101000a81548160ff0219169083151502179055506000816003018190555050505050565b60055481565b60035481565b60035434116106f057600080fd5b600160003373ffffffffffffffffffffffffffffffffffffffff1673ffffffffffffffffffffffffffffffffffffffff16815260200190815260200160002060009054906101000a900460ff1661075a576004600081548092919061075490610fd2565b91905055505b60018060003373ffffffffffffffffffffffffffffffffffffffff1673ffffffffffffffffffffffffffffffffffffffff16815260200190815260200160002060006101000a81548160ff02191690831515021790555034600560008282546107c3919061101b565b92505081905550565b6000600282815481106107e2576107e1610e7f565b5b90600052602060002090600502019050600160003373ffffffffffffffffffffffffffffffffffffffff1673ffffffffffffffffffffffffffffffffffffffff16815260200190815260200160002060009054906101000a900460ff1661084857600080fd5b8060040160003373ffffffffffffffffffffffffffffffffffffffff1673ffffffffffffffffffffffffffffffffffffffff16815260200190815260200160002060009054906101000a900460ff16156108a157600080fd5b60018160040160003373ffffffffffffffffffffffffffffffffffffffff1673ffffffffffffffffffffffffffffffffffffffff16815260200190815260200160002060006101000a81548160ff02191690831515021790555080600301600081548092919061091090610fd2565b91905055505050565b82805461092590610fa0565b90600052602060002090601f016020900481019282610947576000855561098e565b82601f1061096057805160ff191683800117855561098e565b8280016001018555821561098e579182015b8281111561098d578251825591602001919060010190610972565b5b50905061099b919061099f565b5090565b5b808211156109b85760008160009055506001016109a0565b5090565b6000604051905090565b600080fd5b600080fd5b6000819050919050565b6109e3816109d0565b81146109ee57600080fd5b50565b600081359050610a00816109da565b92915050565b600060208284031215610a1c57610a1b6109c6565b5b6000610a2a848285016109f1565b91505092915050565b600073ffffffffffffffffffffffffffffffffffffffff82169050919050565b6000610a5e82610a33565b9050919050565b610a6e81610a53565b8114610a7957600080fd5b50565b600081359050610a8b81610a65565b92915050565b600060208284031215610aa757610aa66109c6565b5b6000610ab584828501610a7c565b91505092915050565b60008115159050919050565b610ad381610abe565b82525050565b6000602082019050610aee6000830184610aca565b92915050565b610afd816109d0565b82525050565b6000602082019050610b186000830184610af4565b92915050565b610b2781610a53565b82525050565b600060a082019050610b426000830188610af4565b610b4f6020830187610af4565b610b5c6040830186610af4565b610b696060830185610af4565b610b766080830184610b1e565b9695505050505050565b6000602082019050610b956000830184610b1e565b92915050565b600081519050919050565b600082825260208201905092915050565b60005b83811015610bd5578082015181840152602081019050610bba565b83811115610be4576000848401525b50505050565b6000601f19601f8301169050919050565b6000610c0682610b9b565b610c108185610ba6565b9350610c20818560208601610bb7565b610c2981610bea565b840191505092915050565b6000610c3f82610a33565b9050919050565b610c4f81610c34565b82525050565b600060a0820190508181036000830152610c6f8188610bfb565b9050610c7e6020830187610af4565b610c8b6040830186610c46565b610c986060830185610aca565b610ca56080830184610af4565b9695505050505050565b600080fd5b600080fd5b7f4e487b7100000000000000000000000000000000000000000000000000000000600052604160045260246000fd5b610cf182610bea565b810181811067ffffffffffffffff82111715610d1057610d0f610cb9565b5b80604052505050565b6000610d236109bc565b9050610d2f8282610ce8565b919050565b600067ffffffffffffffff821115610d4f57610d4e610cb9565b5b610d5882610bea565b9050602081019050919050565b82818337600083830152505050565b6000610d87610d8284610d34565b610d19565b905082815260208101848484011115610da357610da2610cb4565b5b610dae848285610d65565b509392505050565b600082601f830112610dcb57610dca610caf565b5b8135610ddb848260208601610d74565b91505092915050565b610ded81610c34565b8114610df857600080fd5b50565b600081359050610e0a81610de4565b92915050565b600080600060608486031215610e2957610e286109c6565b5b600084013567ffffffffffffffff811115610e4757610e466109cb565b5b610e5386828701610db6565b9350506020610e64868287016109f1565b9250506040610e7586828701610dfb565b9150509250925092565b7f4e487b7100000000000000000000000000000000000000000000000000000000600052603260045260246000fd5b7f4e487b7100000000000000000000000000000000000000000000000000000000600052601260045260246000fd5b7f4e487b7100000000000000000000000000000000000000000000000000000000600052601160045260246000fd5b6000610f17826109d0565b9150610f22836109d0565b925082610f3257610f31610eae565b5b828204905092915050565b6000610f48826109d0565b9150610f53836109d0565b925082821015610f6657610f65610edd565b5b828203905092915050565b7f4e487b7100000000000000000000000000000000000000000000000000000000600052602260045260246000fd5b60006002820490506001821680610fb857607f821691505b60208210811415610fcc57610fcb610f71565b5b50919050565b6000610fdd826109d0565b91507fffffffffffffffffffffffffffffffffffffffffffffffffffffffffffffffff8214156110105761100f610edd565b5b600182019050919050565b6000611026826109d0565b9150611031836109d0565b9250827fffffffffffffffffffffffffffffffffffffffffffffffffffffffffffffffff0382111561106657611065610edd565b5b82820190509291505056fea2646970667358221220177811eb5f77ef7d8337243e97cac626304a079d5e2140ca9dc27abf67773c3464736f6c634300080b0033a26469706673582212206963646f65e7eea4fee5444dc05aba8aea98f67c3b77d803764afecf0c0ba51a64736f6c634300080b0033","opcodes":"PUSH1 0x80 PUSH1 0x40 MSTORE CALLVALUE DUP1 ISZERO PUSH2 0x10 JUMPI PUSH1 0x0 DUP1 REVERT JUMPDEST POP PUSH2 0x1666 DUP1 PUSH2 0x20 PUSH1 0x0 CODECOPY PUSH1 0x0 RETURN INVALID PUSH1 0x80 PUSH1 0x40 MSTORE CALLVALUE DUP1 ISZERO PUSH2 0x10 JUMPI PUSH1 0x0 DUP1 REVERT JUMPDEST POP PUSH1 0x4 CALLDATASIZE LT PUSH2 0x41 JUMPI PUSH1 0x0 CALLDATALOAD PUSH1 0xE0 SHR DUP1 PUSH4 0x4ACB9D4F EQ PUSH2 0x46 JUMPI DUP1 PUSH4 0x9AD1EE10 EQ PUSH2 0x64 JUMPI DUP1 PUSH4 0xA3303A75 EQ PUSH2 0x94 JUMPI JUMPDEST PUSH1 0x0 DUP1 REVERT JUMPDEST PUSH2 0x4E PUSH2 0xB0 JUMP JUMPDEST PUSH1 0x40 MLOAD PUSH2 0x5B SWAP2 SWAP1 PUSH2 0x31B JUMP JUMPDEST PUSH1 0x40 MLOAD DUP1 SWAP2 SUB SWAP1 RETURN JUMPDEST PUSH2 0x7E PUSH1 0x4 DUP1 CALLDATASIZE SUB DUP2 ADD SWAP1 PUSH2 0x79 SWAP2 SWAP1 PUSH2 0x378 JUMP JUMPDEST PUSH2 0x13E JUMP JUMPDEST PUSH1 0x40 MLOAD PUSH2 0x8B SWAP2 SWAP1 PUSH2 0x3B4 JUMP JUMPDEST PUSH1 0x40 MLOAD DUP1 SWAP2 SUB SWAP1 RETURN JUMPDEST PUSH2 0xAE PUSH1 0x4 DUP1 CALLDATASIZE SUB DUP2 ADD SWAP1 PUSH2 0xA9 SWAP2 SWAP1 PUSH2 0x378 JUMP JUMPDEST PUSH2 0x17D JUMP JUMPDEST STOP JUMPDEST PUSH1 0x60 PUSH1 0x0 DUP1 SLOAD DUP1 PUSH1 0x20 MUL PUSH1 0x20 ADD PUSH1 0x40 MLOAD SWAP1 DUP2 ADD PUSH1 0x40 MSTORE DUP1 SWAP3 SWAP2 SWAP1 DUP2 DUP2 MSTORE PUSH1 0x20 ADD DUP3 DUP1 SLOAD DUP1 ISZERO PUSH2 0x134 JUMPI PUSH1 0x20 MUL DUP3 ADD SWAP2 SWAP1 PUSH1 0x0 MSTORE PUSH1 0x20 PUSH1 0x0 KECCAK256 SWAP1 JUMPDEST DUP2 PUSH1 0x0 SWAP1 SLOAD SWAP1 PUSH2 0x100 EXP SWAP1 DIV PUSH20 0xFFFFFFFFFFFFFFFFFFFFFFFFFFFFFFFFFFFFFFFF AND PUSH20 0xFFFFFFFFFFFFFFFFFFFFFFFFFFFFFFFFFFFFFFFF AND DUP2 MSTORE PUSH1 0x20 ADD SWAP1 PUSH1 0x1 ADD SWAP1 DUP1 DUP4 GT PUSH2 0xEA JUMPI JUMPDEST POP POP POP POP POP SWAP1 POP SWAP1 JUMP JUMPDEST PUSH1 0x0 DUP2 DUP2 SLOAD DUP2 LT PUSH2 0x14E JUMPI PUSH1 0x0 DUP1 REVERT JUMPDEST SWAP1 PUSH1 0x0 MSTORE PUSH1 0x20 PUSH1 0x0 KECCAK256 ADD PUSH1 0x0 SWAP2 POP SLOAD SWAP1 PUSH2 0x100 EXP SWAP1 DIV PUSH20 0xFFFFFFFFFFFFFFFFFFFFFFFFFFFFFFFFFFFFFFFF AND DUP2 JUMP JUMPDEST PUSH1 0x0 DUP2 CALLER PUSH1 0x40 MLOAD PUSH2 0x18D SWAP1 PUSH2 0x21E JUMP JUMPDEST PUSH2 0x198 SWAP3 SWAP2 SWAP1 PUSH2 0x3DE JUMP JUMPDEST PUSH1 0x40 MLOAD DUP1 SWAP2 SUB SWAP1 PUSH1 0x0 CREATE DUP1 ISZERO DUP1 ISZERO PUSH2 0x1B4 JUMPI RETURNDATASIZE PUSH1 0x0 DUP1 RETURNDATACOPY RETURNDATASIZE PUSH1 0x0 REVERT JUMPDEST POP SWAP1 POP PUSH1 0x0 DUP2 SWAP1 DUP1 PUSH1 0x1 DUP2 SLOAD ADD DUP1 DUP3 SSTORE DUP1 SWAP2 POP POP PUSH1 0x1 SWAP1 SUB SWAP1 PUSH1 0x0 MSTORE PUSH1 0x20 PUSH1 0x0 KECCAK256 ADD PUSH1 0x0 SWAP1 SWAP2 SWAP1 SWAP2 SWAP1 SWAP2 PUSH2 0x100 EXP DUP2 SLOAD DUP2 PUSH20 0xFFFFFFFFFFFFFFFFFFFFFFFFFFFFFFFFFFFFFFFF MUL NOT AND SWAP1 DUP4 PUSH20 0xFFFFFFFFFFFFFFFFFFFFFFFFFFFFFFFFFFFFFFFF AND MUL OR SWAP1 SSTORE POP POP POP JUMP JUMPDEST PUSH2 0x1229 DUP1 PUSH2 0x408 DUP4 CODECOPY ADD SWAP1 JUMP JUMPDEST PUSH1 0x0 DUP2 MLOAD SWAP1 POP SWAP2 SWAP1 POP JUMP JUMPDEST PUSH1 0x0 DUP3 DUP3 MSTORE PUSH1 0x20 DUP3 ADD SWAP1 POP SWAP3 SWAP2 POP POP JUMP JUMPDEST PUSH1 0x0 DUP2 SWAP1 POP PUSH1 0x20 DUP3 ADD SWAP1 POP SWAP2 SWAP1 POP JUMP JUMPDEST PUSH1 0x0 PUSH20 0xFFFFFFFFFFFFFFFFFFFFFFFFFFFFFFFFFFFFFFFF DUP3 AND SWAP1 POP SWAP2 SWAP1 POP JUMP JUMPDEST PUSH1 0x0 PUSH2 0x282 DUP3 PUSH2 0x257 JUMP JUMPDEST SWAP1 POP SWAP2 SWAP1 POP JUMP JUMPDEST PUSH2 0x292 DUP2 PUSH2 0x277 JUMP JUMPDEST DUP3 MSTORE POP POP JUMP JUMPDEST PUSH1 0x0 PUSH2 0x2A4 DUP4 DUP4 PUSH2 0x289 JUMP JUMPDEST PUSH1 0x20 DUP4 ADD SWAP1 POP SWAP3 SWAP2 POP POP JUMP JUMPDEST PUSH1 0x0 PUSH1 0x20 DUP3 ADD SWAP1 POP SWAP2 SWAP1 POP JUMP JUMPDEST PUSH1 0x0 PUSH2 0x2C8 DUP3 PUSH2 0x22B JUMP JUMPDEST PUSH2 0x2D2 DUP2 DUP6 PUSH2 0x236 JUMP JUMPDEST SWAP4 POP PUSH2 0x2DD DUP4 PUSH2 0x247 JUMP JUMPDEST DUP1 PUSH1 0x0 JUMPDEST DUP4 DUP2 LT ISZERO PUSH2 0x30E JUMPI DUP2 MLOAD PUSH2 0x2F5 DUP9 DUP3 PUSH2 0x298 JUMP JUMPDEST SWAP8 POP PUSH2 0x300 DUP4 PUSH2 0x2B0 JUMP JUMPDEST SWAP3 POP POP PUSH1 0x1 DUP2 ADD SWAP1 POP PUSH2 0x2E1 JUMP JUMPDEST POP DUP6 SWAP4 POP POP POP POP SWAP3 SWAP2 POP POP JUMP JUMPDEST PUSH1 0x0 PUSH1 0x20 DUP3 ADD SWAP1 POP DUP2 DUP2 SUB PUSH1 0x0 DUP4 ADD MSTORE PUSH2 0x335 DUP2 DUP5 PUSH2 0x2BD JUMP JUMPDEST SWAP1 POP SWAP3 SWAP2 POP POP JUMP JUMPDEST PUSH1 0x0 DUP1 REVERT JUMPDEST PUSH1 0x0 DUP2 SWAP1 POP SWAP2 SWAP1 POP JUMP JUMPDEST PUSH2 0x355 DUP2 PUSH2 0x342 JUMP JUMPDEST DUP2 EQ PUSH2 0x360 JUMPI PUSH1 0x0 DUP1 REVERT JUMPDEST POP JUMP JUMPDEST PUSH1 0x0 DUP2 CALLDATALOAD SWAP1 POP PUSH2 0x372 DUP2 PUSH2 0x34C JUMP JUMPDEST SWAP3 SWAP2 POP POP JUMP JUMPDEST PUSH1 0x0 PUSH1 0x20 DUP3 DUP5 SUB SLT ISZERO PUSH2 0x38E JUMPI PUSH2 0x38D PUSH2 0x33D JUMP JUMPDEST JUMPDEST PUSH1 0x0 PUSH2 0x39C DUP5 DUP3 DUP6 ADD PUSH2 0x363 JUMP JUMPDEST SWAP2 POP POP SWAP3 SWAP2 POP POP JUMP JUMPDEST PUSH2 0x3AE DUP2 PUSH2 0x277 JUMP JUMPDEST DUP3 MSTORE POP POP JUMP JUMPDEST PUSH1 0x0 PUSH1 0x20 DUP3 ADD SWAP1 POP PUSH2 0x3C9 PUSH1 0x0 DUP4 ADD DUP5 PUSH2 0x3A5 JUMP JUMPDEST SWAP3 SWAP2 POP POP JUMP JUMPDEST PUSH2 0x3D8 DUP2 PUSH2 0x342 JUMP JUMPDEST DUP3 MSTORE POP POP JUMP JUMPDEST PUSH1 0x0 PUSH1 0x40 DUP3 ADD SWAP1 POP PUSH2 0x3F3 PUSH1 0x0 DUP4 ADD DUP6 PUSH2 0x3CF JUMP JUMPDEST PUSH2 0x400 PUSH1 0x20 DUP4 ADD DUP5 PUSH2 0x3A5 JUMP JUMPDEST SWAP4 SWAP3 POP POP POP JUMP INVALID PUSH1 0x80 PUSH1 0x40 MSTORE CALLVALUE DUP1 ISZERO PUSH3 0x11 JUMPI PUSH1 0x0 DUP1 REVERT JUMPDEST POP PUSH1 0x40 MLOAD PUSH3 0x1229 CODESIZE SUB DUP1 PUSH3 0x1229 DUP4 CODECOPY DUP2 DUP2 ADD PUSH1 0x40 MSTORE DUP2 ADD SWAP1 PUSH3 0x37 SWAP2 SWAP1 PUSH3 0x12B JUMP JUMPDEST DUP1 PUSH1 0x0 DUP1 PUSH2 0x100 EXP DUP2 SLOAD DUP2 PUSH20 0xFFFFFFFFFFFFFFFFFFFFFFFFFFFFFFFFFFFFFFFF MUL NOT AND SWAP1 DUP4 PUSH20 0xFFFFFFFFFFFFFFFFFFFFFFFFFFFFFFFFFFFFFFFF AND MUL OR SWAP1 SSTORE POP DUP2 PUSH1 0x3 DUP2 SWAP1 SSTORE POP POP POP PUSH3 0x172 JUMP JUMPDEST PUSH1 0x0 DUP1 REVERT JUMPDEST PUSH1 0x0 DUP2 SWAP1 POP SWAP2 SWAP1 POP JUMP JUMPDEST PUSH3 0xA0 DUP2 PUSH3 0x8B JUMP JUMPDEST DUP2 EQ PUSH3 0xAC JUMPI PUSH1 0x0 DUP1 REVERT JUMPDEST POP JUMP JUMPDEST PUSH1 0x0 DUP2 MLOAD SWAP1 POP PUSH3 0xC0 DUP2 PUSH3 0x95 JUMP JUMPDEST SWAP3 SWAP2 POP POP JUMP JUMPDEST PUSH1 0x0 PUSH20 0xFFFFFFFFFFFFFFFFFFFFFFFFFFFFFFFFFFFFFFFF DUP3 AND SWAP1 POP SWAP2 SWAP1 POP JUMP JUMPDEST PUSH1 0x0 PUSH3 0xF3 DUP3 PUSH3 0xC6 JUMP JUMPDEST SWAP1 POP SWAP2 SWAP1 POP JUMP JUMPDEST PUSH3 0x105 DUP2 PUSH3 0xE6 JUMP JUMPDEST DUP2 EQ PUSH3 0x111 JUMPI PUSH1 0x0 DUP1 REVERT JUMPDEST POP JUMP JUMPDEST PUSH1 0x0 DUP2 MLOAD SWAP1 POP PUSH3 0x125 DUP2 PUSH3 0xFA JUMP JUMPDEST SWAP3 SWAP2 POP POP JUMP JUMPDEST PUSH1 0x0 DUP1 PUSH1 0x40 DUP4 DUP6 SUB SLT ISZERO PUSH3 0x145 JUMPI PUSH3 0x144 PUSH3 0x86 JUMP JUMPDEST JUMPDEST PUSH1 0x0 PUSH3 0x155 DUP6 DUP3 DUP7 ADD PUSH3 0xAF JUMP JUMPDEST SWAP3 POP POP PUSH1 0x20 PUSH3 0x168 DUP6 DUP3 DUP7 ADD PUSH3 0x114 JUMP JUMPDEST SWAP2 POP POP SWAP3 POP SWAP3 SWAP1 POP JUMP JUMPDEST PUSH2 0x10A7 DUP1 PUSH3 0x182 PUSH1 0x0 CODECOPY PUSH1 0x0 RETURN INVALID PUSH1 0x80 PUSH1 0x40 MSTORE PUSH1 0x4 CALLDATASIZE LT PUSH2 0xA7 JUMPI PUSH1 0x0 CALLDATALOAD PUSH1 0xE0 SHR DUP1 PUSH4 0x81D12C58 GT PUSH2 0x64 JUMPI DUP1 PUSH4 0x81D12C58 EQ PUSH2 0x1C2 JUMPI DUP1 PUSH4 0x8A9CFD55 EQ PUSH2 0x203 JUMPI DUP1 PUSH4 0xB69EF8A8 EQ PUSH2 0x22C JUMPI DUP1 PUSH4 0xBB0C8298 EQ PUSH2 0x257 JUMPI DUP1 PUSH4 0xD7BB99BA EQ PUSH2 0x282 JUMPI DUP1 PUSH4 0xD7D1BBDB EQ PUSH2 0x28C JUMPI PUSH2 0xA7 JUMP JUMPDEST DUP1 PUSH4 0x3441006 EQ PUSH2 0xAC JUMPI DUP1 PUSH4 0xA144391 EQ PUSH2 0xD5 JUMPI DUP1 PUSH4 0x128E9BE6 EQ PUSH2 0x112 JUMPI DUP1 PUSH4 0x3410452A EQ PUSH2 0x13D JUMPI DUP1 PUSH4 0x4051DDAC EQ PUSH2 0x168 JUMPI DUP1 PUSH4 0x481C6A75 EQ PUSH2 0x197 JUMPI JUMPDEST PUSH1 0x0 DUP1 REVERT JUMPDEST CALLVALUE DUP1 ISZERO PUSH2 0xB8 JUMPI PUSH1 0x0 DUP1 REVERT JUMPDEST POP PUSH2 0xD3 PUSH1 0x4 DUP1 CALLDATASIZE SUB DUP2 ADD SWAP1 PUSH2 0xCE SWAP2 SWAP1 PUSH2 0xA06 JUMP JUMPDEST PUSH2 0x2B5 JUMP JUMPDEST STOP JUMPDEST CALLVALUE DUP1 ISZERO PUSH2 0xE1 JUMPI PUSH1 0x0 DUP1 REVERT JUMPDEST POP PUSH2 0xFC PUSH1 0x4 DUP1 CALLDATASIZE SUB DUP2 ADD SWAP1 PUSH2 0xF7 SWAP2 SWAP1 PUSH2 0xA91 JUMP JUMPDEST PUSH2 0x42D JUMP JUMPDEST PUSH1 0x40 MLOAD PUSH2 0x109 SWAP2 SWAP1 PUSH2 0xAD9 JUMP JUMPDEST PUSH1 0x40 MLOAD DUP1 SWAP2 SUB SWAP1 RETURN JUMPDEST CALLVALUE DUP1 ISZERO PUSH2 0x11E JUMPI PUSH1 0x0 DUP1 REVERT JUMPDEST POP PUSH2 0x127 PUSH2 0x44D JUMP JUMPDEST PUSH1 0x40 MLOAD PUSH2 0x134 SWAP2 SWAP1 PUSH2 0xB03 JUMP JUMPDEST PUSH1 0x40 MLOAD DUP1 SWAP2 SUB SWAP1 RETURN JUMPDEST CALLVALUE DUP1 ISZERO PUSH2 0x149 JUMPI PUSH1 0x0 DUP1 REVERT JUMPDEST POP PUSH2 0x152 PUSH2 0x453 JUMP JUMPDEST PUSH1 0x40 MLOAD PUSH2 0x15F SWAP2 SWAP1 PUSH2 0xB03 JUMP JUMPDEST PUSH1 0x40 MLOAD DUP1 SWAP2 SUB SWAP1 RETURN JUMPDEST CALLVALUE DUP1 ISZERO PUSH2 0x174 JUMPI PUSH1 0x0 DUP1 REVERT JUMPDEST POP PUSH2 0x17D PUSH2 0x460 JUMP JUMPDEST PUSH1 0x40 MLOAD PUSH2 0x18E SWAP6 SWAP5 SWAP4 SWAP3 SWAP2 SWAP1 PUSH2 0xB2D JUMP JUMPDEST PUSH1 0x40 MLOAD DUP1 SWAP2 SUB SWAP1 RETURN JUMPDEST CALLVALUE DUP1 ISZERO PUSH2 0x1A3 JUMPI PUSH1 0x0 DUP1 REVERT JUMPDEST POP PUSH2 0x1AC PUSH2 0x4A9 JUMP JUMPDEST PUSH1 0x40 MLOAD PUSH2 0x1B9 SWAP2 SWAP1 PUSH2 0xB80 JUMP JUMPDEST PUSH1 0x40 MLOAD DUP1 SWAP2 SUB SWAP1 RETURN JUMPDEST CALLVALUE DUP1 ISZERO PUSH2 0x1CE JUMPI PUSH1 0x0 DUP1 REVERT JUMPDEST POP PUSH2 0x1E9 PUSH1 0x4 DUP1 CALLDATASIZE SUB DUP2 ADD SWAP1 PUSH2 0x1E4 SWAP2 SWAP1 PUSH2 0xA06 JUMP JUMPDEST PUSH2 0x4CD JUMP JUMPDEST PUSH1 0x40 MLOAD PUSH2 0x1FA SWAP6 SWAP5 SWAP4 SWAP3 SWAP2 SWAP1 PUSH2 0xC55 JUMP JUMPDEST PUSH1 0x40 MLOAD DUP1 SWAP2 SUB SWAP1 RETURN JUMPDEST CALLVALUE DUP1 ISZERO PUSH2 0x20F JUMPI PUSH1 0x0 DUP1 REVERT JUMPDEST POP PUSH2 0x22A PUSH1 0x4 DUP1 CALLDATASIZE SUB DUP2 ADD SWAP1 PUSH2 0x225 SWAP2 SWAP1 PUSH2 0xE10 JUMP JUMPDEST PUSH2 0x5C8 JUMP JUMPDEST STOP JUMPDEST CALLVALUE DUP1 ISZERO PUSH2 0x238 JUMPI PUSH1 0x0 DUP1 REVERT JUMPDEST POP PUSH2 0x241 PUSH2 0x6D6 JUMP JUMPDEST PUSH1 0x40 MLOAD PUSH2 0x24E SWAP2 SWAP1 PUSH2 0xB03 JUMP JUMPDEST PUSH1 0x40 MLOAD DUP1 SWAP2 SUB SWAP1 RETURN JUMPDEST CALLVALUE DUP1 ISZERO PUSH2 0x263 JUMPI PUSH1 0x0 DUP1 REVERT JUMPDEST POP PUSH2 0x26C PUSH2 0x6DC JUMP JUMPDEST PUSH1 0x40 MLOAD PUSH2 0x279 SWAP2 SWAP1 PUSH2 0xB03 JUMP JUMPDEST PUSH1 0x40 MLOAD DUP1 SWAP2 SUB SWAP1 RETURN JUMPDEST PUSH2 0x28A PUSH2 0x6E2 JUMP JUMPDEST STOP JUMPDEST CALLVALUE DUP1 ISZERO PUSH2 0x298 JUMPI PUSH1 0x0 DUP1 REVERT JUMPDEST POP PUSH2 0x2B3 PUSH1 0x4 DUP1 CALLDATASIZE SUB DUP2 ADD SWAP1 PUSH2 0x2AE SWAP2 SWAP1 PUSH2 0xA06 JUMP JUMPDEST PUSH2 0x7CC JUMP JUMPDEST STOP JUMPDEST PUSH1 0x0 DUP1 SLOAD SWAP1 PUSH2 0x100 EXP SWAP1 DIV PUSH20 0xFFFFFFFFFFFFFFFFFFFFFFFFFFFFFFFFFFFFFFFF AND PUSH20 0xFFFFFFFFFFFFFFFFFFFFFFFFFFFFFFFFFFFFFFFF AND CALLER PUSH20 0xFFFFFFFFFFFFFFFFFFFFFFFFFFFFFFFFFFFFFFFF AND EQ PUSH2 0x30D JUMPI PUSH1 0x0 DUP1 REVERT JUMPDEST PUSH1 0x0 PUSH1 0x2 DUP3 DUP2 SLOAD DUP2 LT PUSH2 0x323 JUMPI PUSH2 0x322 PUSH2 0xE7F JUMP JUMPDEST JUMPDEST SWAP1 PUSH1 0x0 MSTORE PUSH1 0x20 PUSH1 0x0 KECCAK256 SWAP1 PUSH1 0x5 MUL ADD SWAP1 POP PUSH1 0x2 PUSH1 0x4 SLOAD PUSH2 0x342 SWAP2 SWAP1 PUSH2 0xF0C JUMP JUMPDEST DUP2 PUSH1 0x3 ADD SLOAD GT PUSH2 0x351 JUMPI PUSH1 0x0 DUP1 REVERT JUMPDEST DUP1 PUSH1 0x1 ADD SLOAD PUSH1 0x5 SLOAD LT ISZERO PUSH2 0x364 JUMPI PUSH1 0x0 DUP1 REVERT JUMPDEST DUP1 PUSH1 0x2 ADD PUSH1 0x14 SWAP1 SLOAD SWAP1 PUSH2 0x100 EXP SWAP1 DIV PUSH1 0xFF AND ISZERO PUSH2 0x380 JUMPI PUSH1 0x0 DUP1 REVERT JUMPDEST DUP1 PUSH1 0x2 ADD PUSH1 0x0 SWAP1 SLOAD SWAP1 PUSH2 0x100 EXP SWAP1 DIV PUSH20 0xFFFFFFFFFFFFFFFFFFFFFFFFFFFFFFFFFFFFFFFF AND PUSH20 0xFFFFFFFFFFFFFFFFFFFFFFFFFFFFFFFFFFFFFFFF AND PUSH2 0x8FC DUP3 PUSH1 0x1 ADD SLOAD SWAP1 DUP2 ISZERO MUL SWAP1 PUSH1 0x40 MLOAD PUSH1 0x0 PUSH1 0x40 MLOAD DUP1 DUP4 SUB DUP2 DUP6 DUP9 DUP9 CALL SWAP4 POP POP POP POP ISZERO DUP1 ISZERO PUSH2 0x3EE JUMPI RETURNDATASIZE PUSH1 0x0 DUP1 RETURNDATACOPY RETURNDATASIZE PUSH1 0x0 REVERT JUMPDEST POP DUP1 PUSH1 0x1 ADD SLOAD PUSH1 0x5 PUSH1 0x0 DUP3 DUP3 SLOAD PUSH2 0x405 SWAP2 SWAP1 PUSH2 0xF3D JUMP JUMPDEST SWAP3 POP POP DUP2 SWAP1 SSTORE POP PUSH1 0x1 DUP2 PUSH1 0x2 ADD PUSH1 0x14 PUSH2 0x100 EXP DUP2 SLOAD DUP2 PUSH1 0xFF MUL NOT AND SWAP1 DUP4 ISZERO ISZERO MUL OR SWAP1 SSTORE POP POP POP JUMP JUMPDEST PUSH1 0x1 PUSH1 0x20 MSTORE DUP1 PUSH1 0x0 MSTORE PUSH1 0x40 PUSH1 0x0 KECCAK256 PUSH1 0x0 SWAP2 POP SLOAD SWAP1 PUSH2 0x100 EXP SWAP1 DIV PUSH1 0xFF AND DUP2 JUMP JUMPDEST PUSH1 0x4 SLOAD DUP2 JUMP JUMPDEST PUSH1 0x0 PUSH1 0x2 DUP1 SLOAD SWAP1 POP SWAP1 POP SWAP1 JUMP JUMPDEST PUSH1 0x0 DUP1 PUSH1 0x0 DUP1 PUSH1 0x0 PUSH1 0x3 SLOAD PUSH1 0x5 SLOAD PUSH1 0x2 DUP1 SLOAD SWAP1 POP PUSH1 0x4 SLOAD PUSH1 0x0 DUP1 SLOAD SWAP1 PUSH2 0x100 EXP SWAP1 DIV PUSH20 0xFFFFFFFFFFFFFFFFFFFFFFFFFFFFFFFFFFFFFFFF AND SWAP5 POP SWAP5 POP SWAP5 POP SWAP5 POP SWAP5 POP SWAP1 SWAP2 SWAP3 SWAP4 SWAP5 JUMP JUMPDEST PUSH1 0x0 DUP1 SLOAD SWAP1 PUSH2 0x100 EXP SWAP1 DIV PUSH20 0xFFFFFFFFFFFFFFFFFFFFFFFFFFFFFFFFFFFFFFFF AND DUP2 JUMP JUMPDEST PUSH1 0x2 DUP2 DUP2 SLOAD DUP2 LT PUSH2 0x4DD JUMPI PUSH1 0x0 DUP1 REVERT JUMPDEST SWAP1 PUSH1 0x0 MSTORE PUSH1 0x20 PUSH1 0x0 KECCAK256 SWAP1 PUSH1 0x5 MUL ADD PUSH1 0x0 SWAP2 POP SWAP1 POP DUP1 PUSH1 0x0 ADD DUP1 SLOAD PUSH2 0x500 SWAP1 PUSH2 0xFA0 JUMP JUMPDEST DUP1 PUSH1 0x1F ADD PUSH1 0x20 DUP1 SWAP2 DIV MUL PUSH1 0x20 ADD PUSH1 0x40 MLOAD SWAP1 DUP2 ADD PUSH1 0x40 MSTORE DUP1 SWAP3 SWAP2 SWAP1 DUP2 DUP2 MSTORE PUSH1 0x20 ADD DUP3 DUP1 SLOAD PUSH2 0x52C SWAP1 PUSH2 0xFA0 JUMP JUMPDEST DUP1 ISZERO PUSH2 0x579 JUMPI DUP1 PUSH1 0x1F LT PUSH2 0x54E JUMPI PUSH2 0x100 DUP1 DUP4 SLOAD DIV MUL DUP4 MSTORE SWAP2 PUSH1 0x20 ADD SWAP2 PUSH2 0x579 JUMP JUMPDEST DUP3 ADD SWAP2 SWAP1 PUSH1 0x0 MSTORE PUSH1 0x20 PUSH1 0x0 KECCAK256 SWAP1 JUMPDEST DUP2 SLOAD DUP2 MSTORE SWAP1 PUSH1 0x1 ADD SWAP1 PUSH1 0x20 ADD DUP1 DUP4 GT PUSH2 0x55C JUMPI DUP3 SWAP1 SUB PUSH1 0x1F AND DUP3 ADD SWAP2 JUMPDEST POP POP POP POP POP SWAP1 DUP1 PUSH1 0x1 ADD SLOAD SWAP1 DUP1 PUSH1 0x2 ADD PUSH1 0x0 SWAP1 SLOAD SWAP1 PUSH2 0x100 EXP SWAP1 DIV PUSH20 0xFFFFFFFFFFFFFFFFFFFFFFFFFFFFFFFFFFFFFFFF AND SWAP1 DUP1 PUSH1 0x2 ADD PUSH1 0x14 SWAP1 SLOAD SWAP1 PUSH2 0x100 EXP SWAP1 DIV PUSH1 0xFF AND SWAP1 DUP1 PUSH1 0x3 ADD SLOAD SWAP1 POP DUP6 JUMP JUMPDEST PUSH1 0x0 DUP1 SLOAD SWAP1 PUSH2 0x100 EXP SWAP1 DIV PUSH20 0xFFFFFFFFFFFFFFFFFFFFFFFFFFFFFFFFFFFFFFFF AND PUSH20 0xFFFFFFFFFFFFFFFFFFFFFFFFFFFFFFFFFFFFFFFF AND CALLER PUSH20 0xFFFFFFFFFFFFFFFFFFFFFFFFFFFFFFFFFFFFFFFF AND EQ PUSH2 0x620 JUMPI PUSH1 0x0 DUP1 REVERT JUMPDEST PUSH1 0x0 PUSH1 0x2 PUSH1 0x1 DUP2 PUSH1 0x1 DUP2 SLOAD ADD DUP1 DUP3 SSTORE DUP1 SWAP2 POP POP SUB SWAP1 PUSH1 0x0 MSTORE PUSH1 0x20 PUSH1 0x0 KECCAK256 SWAP1 PUSH1 0x5 MUL ADD SWAP1 POP DUP4 DUP2 PUSH1 0x0 ADD SWAP1 DUP1 MLOAD SWAP1 PUSH1 0x20 ADD SWAP1 PUSH2 0x65C SWAP3 SWAP2 SWAP1 PUSH2 0x919 JUMP JUMPDEST POP DUP3 DUP2 PUSH1 0x1 ADD DUP2 SWAP1 SSTORE POP DUP2 DUP2 PUSH1 0x2 ADD PUSH1 0x0 PUSH2 0x100 EXP DUP2 SLOAD DUP2 PUSH20 0xFFFFFFFFFFFFFFFFFFFFFFFFFFFFFFFFFFFFFFFF MUL NOT AND SWAP1 DUP4 PUSH20 0xFFFFFFFFFFFFFFFFFFFFFFFFFFFFFFFFFFFFFFFF AND MUL OR SWAP1 SSTORE POP PUSH1 0x0 DUP2 PUSH1 0x2 ADD PUSH1 0x14 PUSH2 0x100 EXP DUP2 SLOAD DUP2 PUSH1 0xFF MUL NOT AND SWAP1 DUP4 ISZERO ISZERO MUL OR SWAP1 SSTORE POP PUSH1 0x0 DUP2 PUSH1 0x3 ADD DUP2 SWAP1 SSTORE POP POP POP POP POP JUMP JUMPDEST PUSH1 0x5 SLOAD DUP2 JUMP JUMPDEST PUSH1 0x3 SLOAD DUP2 JUMP JUMPDEST PUSH1 0x3 SLOAD CALLVALUE GT PUSH2 0x6F0 JUMPI PUSH1 0x0 DUP1 REVERT JUMPDEST PUSH1 0x1 PUSH1 0x0 CALLER PUSH20 0xFFFFFFFFFFFFFFFFFFFFFFFFFFFFFFFFFFFFFFFF AND PUSH20 0xFFFFFFFFFFFFFFFFFFFFFFFFFFFFFFFFFFFFFFFF AND DUP2 MSTORE PUSH1 0x20 ADD SWAP1 DUP2 MSTORE PUSH1 0x20 ADD PUSH1 0x0 KECCAK256 PUSH1 0x0 SWAP1 SLOAD SWAP1 PUSH2 0x100 EXP SWAP1 DIV PUSH1 0xFF AND PUSH2 0x75A JUMPI PUSH1 0x4 PUSH1 0x0 DUP2 SLOAD DUP1 SWAP3 SWAP2 SWAP1 PUSH2 0x754 SWAP1 PUSH2 0xFD2 JUMP JUMPDEST SWAP2 SWAP1 POP SSTORE POP JUMPDEST PUSH1 0x1 DUP1 PUSH1 0x0 CALLER PUSH20 0xFFFFFFFFFFFFFFFFFFFFFFFFFFFFFFFFFFFFFFFF AND PUSH20 0xFFFFFFFFFFFFFFFFFFFFFFFFFFFFFFFFFFFFFFFF AND DUP2 MSTORE PUSH1 0x20 ADD SWAP1 DUP2 MSTORE PUSH1 0x20 ADD PUSH1 0x0 KECCAK256 PUSH1 0x0 PUSH2 0x100 EXP DUP2 SLOAD DUP2 PUSH1 0xFF MUL NOT AND SWAP1 DUP4 ISZERO ISZERO MUL OR SWAP1 SSTORE POP CALLVALUE PUSH1 0x5 PUSH1 0x0 DUP3 DUP3 SLOAD PUSH2 0x7C3 SWAP2 SWAP1 PUSH2 0x101B JUMP JUMPDEST SWAP3 POP POP DUP2 SWAP1 SSTORE POP JUMP JUMPDEST PUSH1 0x0 PUSH1 0x2 DUP3 DUP2 SLOAD DUP2 LT PUSH2 0x7E2 JUMPI PUSH2 0x7E1 PUSH2 0xE7F JUMP JUMPDEST JUMPDEST SWAP1 PUSH1 0x0 MSTORE PUSH1 0x20 PUSH1 0x0 KECCAK256 SWAP1 PUSH1 0x5 MUL ADD SWAP1 POP PUSH1 0x1 PUSH1 0x0 CALLER PUSH20 0xFFFFFFFFFFFFFFFFFFFFFFFFFFFFFFFFFFFFFFFF AND PUSH20 0xFFFFFFFFFFFFFFFFFFFFFFFFFFFFFFFFFFFFFFFF AND DUP2 MSTORE PUSH1 0x20 ADD SWAP1 DUP2 MSTORE PUSH1 0x20 ADD PUSH1 0x0 KECCAK256 PUSH1 0x0 SWAP1 SLOAD SWAP1 PUSH2 0x100 EXP SWAP1 DIV PUSH1 0xFF AND PUSH2 0x848 JUMPI PUSH1 0x0 DUP1 REVERT JUMPDEST DUP1 PUSH1 0x4 ADD PUSH1 0x0 CALLER PUSH20 0xFFFFFFFFFFFFFFFFFFFFFFFFFFFFFFFFFFFFFFFF AND PUSH20 0xFFFFFFFFFFFFFFFFFFFFFFFFFFFFFFFFFFFFFFFF AND DUP2 MSTORE PUSH1 0x20 ADD SWAP1 DUP2 MSTORE PUSH1 0x20 ADD PUSH1 0x0 KECCAK256 PUSH1 0x0 SWAP1 SLOAD SWAP1 PUSH2 0x100 EXP SWAP1 DIV PUSH1 0xFF AND ISZERO PUSH2 0x8A1 JUMPI PUSH1 0x0 DUP1 REVERT JUMPDEST PUSH1 0x1 DUP2 PUSH1 0x4 ADD PUSH1 0x0 CALLER PUSH20 0xFFFFFFFFFFFFFFFFFFFFFFFFFFFFFFFFFFFFFFFF AND PUSH20 0xFFFFFFFFFFFFFFFFFFFFFFFFFFFFFFFFFFFFFFFF AND DUP2 MSTORE PUSH1 0x20 ADD SWAP1 DUP2 MSTORE PUSH1 0x20 ADD PUSH1 0x0 KECCAK256 PUSH1 0x0 PUSH2 0x100 EXP DUP2 SLOAD DUP2 PUSH1 0xFF MUL NOT AND SWAP1 DUP4 ISZERO ISZERO MUL OR SWAP1 SSTORE POP DUP1 PUSH1 0x3 ADD PUSH1 0x0 DUP2 SLOAD DUP1 SWAP3 SWAP2 SWAP1 PUSH2 0x910 SWAP1 PUSH2 0xFD2 JUMP JUMPDEST SWAP2 SWAP1 POP SSTORE POP POP POP JUMP JUMPDEST DUP3 DUP1 SLOAD PUSH2 0x925 SWAP1 PUSH2 0xFA0 JUMP JUMPDEST SWAP1 PUSH1 0x0 MSTORE PUSH1 0x20 PUSH1 0x0 KECCAK256 SWAP1 PUSH1 0x1F ADD PUSH1 0x20 SWAP1 DIV DUP2 ADD SWAP3 DUP3 PUSH2 0x947 JUMPI PUSH1 0x0 DUP6 SSTORE PUSH2 0x98E JUMP JUMPDEST DUP3 PUSH1 0x1F LT PUSH2 0x960 JUMPI DUP1 MLOAD PUSH1 0xFF NOT AND DUP4 DUP1 ADD OR DUP6 SSTORE PUSH2 0x98E JUMP JUMPDEST DUP3 DUP1 ADD PUSH1 0x1 ADD DUP6 SSTORE DUP3 ISZERO PUSH2 0x98E JUMPI SWAP2 DUP3 ADD JUMPDEST DUP3 DUP2 GT ISZERO PUSH2 0x98D JUMPI DUP3 MLOAD DUP3 SSTORE SWAP2 PUSH1 0x20 ADD SWAP2 SWAP1 PUSH1 0x1 ADD SWAP1 PUSH2 0x972 JUMP JUMPDEST JUMPDEST POP SWAP1 POP PUSH2 0x99B SWAP2 SWAP1 PUSH2 0x99F JUMP JUMPDEST POP SWAP1 JUMP JUMPDEST JUMPDEST DUP1 DUP3 GT ISZERO PUSH2 0x9B8 JUMPI PUSH1 0x0 DUP2 PUSH1 0x0 SWAP1 SSTORE POP PUSH1 0x1 ADD PUSH2 0x9A0 JUMP JUMPDEST POP SWAP1 JUMP JUMPDEST PUSH1 0x0 PUSH1 0x40 MLOAD SWAP1 POP SWAP1 JUMP JUMPDEST PUSH1 0x0 DUP1 REVERT JUMPDEST PUSH1 0x0 DUP1 REVERT JUMPDEST PUSH1 0x0 DUP2 SWAP1 POP SWAP2 SWAP1 POP JUMP JUMPDEST PUSH2 0x9E3 DUP2 PUSH2 0x9D0 JUMP JUMPDEST DUP2 EQ PUSH2 0x9EE JUMPI PUSH1 0x0 DUP1 REVERT JUMPDEST POP JUMP JUMPDEST PUSH1 0x0 DUP2 CALLDATALOAD SWAP1 POP PUSH2 0xA00 DUP2 PUSH2 0x9DA JUMP JUMPDEST SWAP3 SWAP2 POP POP JUMP JUMPDEST PUSH1 0x0 PUSH1 0x20 DUP3 DUP5 SUB SLT ISZERO PUSH2 0xA1C JUMPI PUSH2 0xA1B PUSH2 0x9C6 JUMP JUMPDEST JUMPDEST PUSH1 0x0 PUSH2 0xA2A DUP5 DUP3 DUP6 ADD PUSH2 0x9F1 JUMP JUMPDEST SWAP2 POP POP SWAP3 SWAP2 POP POP JUMP JUMPDEST PUSH1 0x0 PUSH20 0xFFFFFFFFFFFFFFFFFFFFFFFFFFFFFFFFFFFFFFFF DUP3 AND SWAP1 POP SWAP2 SWAP1 POP JUMP JUMPDEST PUSH1 0x0 PUSH2 0xA5E DUP3 PUSH2 0xA33 JUMP JUMPDEST SWAP1 POP SWAP2 SWAP1 POP JUMP JUMPDEST PUSH2 0xA6E DUP2 PUSH2 0xA53 JUMP JUMPDEST DUP2 EQ PUSH2 0xA79 JUMPI PUSH1 0x0 DUP1 REVERT JUMPDEST POP JUMP JUMPDEST PUSH1 0x0 DUP2 CALLDATALOAD SWAP1 POP PUSH2 0xA8B DUP2 PUSH2 0xA65 JUMP JUMPDEST SWAP3 SWAP2 POP POP JUMP JUMPDEST PUSH1 0x0 PUSH1 0x20 DUP3 DUP5 SUB SLT ISZERO PUSH2 0xAA7 JUMPI PUSH2 0xAA6 PUSH2 0x9C6 JUMP JUMPDEST JUMPDEST PUSH1 0x0 PUSH2 0xAB5 DUP5 DUP3 DUP6 ADD PUSH2 0xA7C JUMP JUMPDEST SWAP2 POP POP SWAP3 SWAP2 POP POP JUMP JUMPDEST PUSH1 0x0 DUP2 ISZERO ISZERO SWAP1 POP SWAP2 SWAP1 POP JUMP JUMPDEST PUSH2 0xAD3 DUP2 PUSH2 0xABE JUMP JUMPDEST DUP3 MSTORE POP POP JUMP JUMPDEST PUSH1 0x0 PUSH1 0x20 DUP3 ADD SWAP1 POP PUSH2 0xAEE PUSH1 0x0 DUP4 ADD DUP5 PUSH2 0xACA JUMP JUMPDEST SWAP3 SWAP2 POP POP JUMP JUMPDEST PUSH2 0xAFD DUP2 PUSH2 0x9D0 JUMP JUMPDEST DUP3 MSTORE POP POP JUMP JUMPDEST PUSH1 0x0 PUSH1 0x20 DUP3 ADD SWAP1 POP PUSH2 0xB18 PUSH1 0x0 DUP4 ADD DUP5 PUSH2 0xAF4 JUMP JUMPDEST SWAP3 SWAP2 POP POP JUMP JUMPDEST PUSH2 0xB27 DUP2 PUSH2 0xA53 JUMP JUMPDEST DUP3 MSTORE POP POP JUMP JUMPDEST PUSH1 0x0 PUSH1 0xA0 DUP3 ADD SWAP1 POP PUSH2 0xB42 PUSH1 0x0 DUP4 ADD DUP9 PUSH2 0xAF4 JUMP JUMPDEST PUSH2 0xB4F PUSH1 0x20 DUP4 ADD DUP8 PUSH2 0xAF4 JUMP JUMPDEST PUSH2 0xB5C PUSH1 0x40 DUP4 ADD DUP7 PUSH2 0xAF4 JUMP JUMPDEST PUSH2 0xB69 PUSH1 0x60 DUP4 ADD DUP6 PUSH2 0xAF4 JUMP JUMPDEST PUSH2 0xB76 PUSH1 0x80 DUP4 ADD DUP5 PUSH2 0xB1E JUMP JUMPDEST SWAP7 SWAP6 POP POP POP POP POP POP JUMP JUMPDEST PUSH1 0x0 PUSH1 0x20 DUP3 ADD SWAP1 POP PUSH2 0xB95 PUSH1 0x0 DUP4 ADD DUP5 PUSH2 0xB1E JUMP JUMPDEST SWAP3 SWAP2 POP POP JUMP JUMPDEST PUSH1 0x0 DUP2 MLOAD SWAP1 POP SWAP2 SWAP1 POP JUMP JUMPDEST PUSH1 0x0 DUP3 DUP3 MSTORE PUSH1 0x20 DUP3 ADD SWAP1 POP SWAP3 SWAP2 POP POP JUMP JUMPDEST PUSH1 0x0 JUMPDEST DUP4 DUP2 LT ISZERO PUSH2 0xBD5 JUMPI DUP1 DUP3 ADD MLOAD DUP2 DUP5 ADD MSTORE PUSH1 0x20 DUP2 ADD SWAP1 POP PUSH2 0xBBA JUMP JUMPDEST DUP4 DUP2 GT ISZERO PUSH2 0xBE4 JUMPI PUSH1 0x0 DUP5 DUP5 ADD MSTORE JUMPDEST POP POP POP POP JUMP JUMPDEST PUSH1 0x0 PUSH1 0x1F NOT PUSH1 0x1F DUP4 ADD AND SWAP1 POP SWAP2 SWAP1 POP JUMP JUMPDEST PUSH1 0x0 PUSH2 0xC06 DUP3 PUSH2 0xB9B JUMP JUMPDEST PUSH2 0xC10 DUP2 DUP6 PUSH2 0xBA6 JUMP JUMPDEST SWAP4 POP PUSH2 0xC20 DUP2 DUP6 PUSH1 0x20 DUP7 ADD PUSH2 0xBB7 JUMP JUMPDEST PUSH2 0xC29 DUP2 PUSH2 0xBEA JUMP JUMPDEST DUP5 ADD SWAP2 POP POP SWAP3 SWAP2 POP POP JUMP JUMPDEST PUSH1 0x0 PUSH2 0xC3F DUP3 PUSH2 0xA33 JUMP JUMPDEST SWAP1 POP SWAP2 SWAP1 POP JUMP JUMPDEST PUSH2 0xC4F DUP2 PUSH2 0xC34 JUMP JUMPDEST DUP3 MSTORE POP POP JUMP JUMPDEST PUSH1 0x0 PUSH1 0xA0 DUP3 ADD SWAP1 POP DUP2 DUP2 SUB PUSH1 0x0 DUP4 ADD MSTORE PUSH2 0xC6F DUP2 DUP9 PUSH2 0xBFB JUMP JUMPDEST SWAP1 POP PUSH2 0xC7E PUSH1 0x20 DUP4 ADD DUP8 PUSH2 0xAF4 JUMP JUMPDEST PUSH2 0xC8B PUSH1 0x40 DUP4 ADD DUP7 PUSH2 0xC46 JUMP JUMPDEST PUSH2 0xC98 PUSH1 0x60 DUP4 ADD DUP6 PUSH2 0xACA JUMP JUMPDEST PUSH2 0xCA5 PUSH1 0x80 DUP4 ADD DUP5 PUSH2 0xAF4 JUMP JUMPDEST SWAP7 SWAP6 POP POP POP POP POP POP JUMP JUMPDEST PUSH1 0x0 DUP1 REVERT JUMPDEST PUSH1 0x0 DUP1 REVERT JUMPDEST PUSH32 0x4E487B7100000000000000000000000000000000000000000000000000000000 PUSH1 0x0 MSTORE PUSH1 0x41 PUSH1 0x4 MSTORE PUSH1 0x24 PUSH1 0x0 REVERT JUMPDEST PUSH2 0xCF1 DUP3 PUSH2 0xBEA JUMP JUMPDEST DUP2 ADD DUP2 DUP2 LT PUSH8 0xFFFFFFFFFFFFFFFF DUP3 GT OR ISZERO PUSH2 0xD10 JUMPI PUSH2 0xD0F PUSH2 0xCB9 JUMP JUMPDEST JUMPDEST DUP1 PUSH1 0x40 MSTORE POP POP POP JUMP JUMPDEST PUSH1 0x0 PUSH2 0xD23 PUSH2 0x9BC JUMP JUMPDEST SWAP1 POP PUSH2 0xD2F DUP3 DUP3 PUSH2 0xCE8 JUMP JUMPDEST SWAP2 SWAP1 POP JUMP JUMPDEST PUSH1 0x0 PUSH8 0xFFFFFFFFFFFFFFFF DUP3 GT ISZERO PUSH2 0xD4F JUMPI PUSH2 0xD4E PUSH2 0xCB9 JUMP JUMPDEST JUMPDEST PUSH2 0xD58 DUP3 PUSH2 0xBEA JUMP JUMPDEST SWAP1 POP PUSH1 0x20 DUP2 ADD SWAP1 POP SWAP2 SWAP1 POP JUMP JUMPDEST DUP3 DUP2 DUP4 CALLDATACOPY PUSH1 0x0 DUP4 DUP4 ADD MSTORE POP POP POP JUMP JUMPDEST PUSH1 0x0 PUSH2 0xD87 PUSH2 0xD82 DUP5 PUSH2 0xD34 JUMP JUMPDEST PUSH2 0xD19 JUMP JUMPDEST SWAP1 POP DUP3 DUP2 MSTORE PUSH1 0x20 DUP2 ADD DUP5 DUP5 DUP5 ADD GT ISZERO PUSH2 0xDA3 JUMPI PUSH2 0xDA2 PUSH2 0xCB4 JUMP JUMPDEST JUMPDEST PUSH2 0xDAE DUP5 DUP3 DUP6 PUSH2 0xD65 JUMP JUMPDEST POP SWAP4 SWAP3 POP POP POP JUMP JUMPDEST PUSH1 0x0 DUP3 PUSH1 0x1F DUP4 ADD SLT PUSH2 0xDCB JUMPI PUSH2 0xDCA PUSH2 0xCAF JUMP JUMPDEST JUMPDEST DUP2 CALLDATALOAD PUSH2 0xDDB DUP5 DUP3 PUSH1 0x20 DUP7 ADD PUSH2 0xD74 JUMP JUMPDEST SWAP2 POP POP SWAP3 SWAP2 POP POP JUMP JUMPDEST PUSH2 0xDED DUP2 PUSH2 0xC34 JUMP JUMPDEST DUP2 EQ PUSH2 0xDF8 JUMPI PUSH1 0x0 DUP1 REVERT JUMPDEST POP JUMP JUMPDEST PUSH1 0x0 DUP2 CALLDATALOAD SWAP1 POP PUSH2 0xE0A DUP2 PUSH2 0xDE4 JUMP JUMPDEST SWAP3 SWAP2 POP POP JUMP JUMPDEST PUSH1 0x0 DUP1 PUSH1 0x0 PUSH1 0x60 DUP5 DUP7 SUB SLT ISZERO PUSH2 0xE29 JUMPI PUSH2 0xE28 PUSH2 0x9C6 JUMP JUMPDEST JUMPDEST PUSH1 0x0 DUP5 ADD CALLDATALOAD PUSH8 0xFFFFFFFFFFFFFFFF DUP2 GT ISZERO PUSH2 0xE47 JUMPI PUSH2 0xE46 PUSH2 0x9CB JUMP JUMPDEST JUMPDEST PUSH2 0xE53 DUP7 DUP3 DUP8 ADD PUSH2 0xDB6 JUMP JUMPDEST SWAP4 POP POP PUSH1 0x20 PUSH2 0xE64 DUP7 DUP3 DUP8 ADD PUSH2 0x9F1 JUMP JUMPDEST SWAP3 POP POP PUSH1 0x40 PUSH2 0xE75 DUP7 DUP3 DUP8 ADD PUSH2 0xDFB JUMP JUMPDEST SWAP2 POP POP SWAP3 POP SWAP3 POP SWAP3 JUMP JUMPDEST PUSH32 0x4E487B7100000000000000000000000000000000000000000000000000000000 PUSH1 0x0 MSTORE PUSH1 0x32 PUSH1 0x4 MSTORE PUSH1 0x24 PUSH1 0x0 REVERT JUMPDEST PUSH32 0x4E487B7100000000000000000000000000000000000000000000000000000000 PUSH1 0x0 MSTORE PUSH1 0x12 PUSH1 0x4 MSTORE PUSH1 0x24 PUSH1 0x0 REVERT JUMPDEST PUSH32 0x4E487B7100000000000000000000000000000000000000000000000000000000 PUSH1 0x0 MSTORE PUSH1 0x11 PUSH1 0x4 MSTORE PUSH1 0x24 PUSH1 0x0 REVERT JUMPDEST PUSH1 0x0 PUSH2 0xF17 DUP3 PUSH2 0x9D0 JUMP JUMPDEST SWAP2 POP PUSH2 0xF22 DUP4 PUSH2 0x9D0 JUMP JUMPDEST SWAP3 POP DUP3 PUSH2 0xF32 JUMPI PUSH2 0xF31 PUSH2 0xEAE JUMP JUMPDEST JUMPDEST DUP3 DUP3 DIV SWAP1 POP SWAP3 SWAP2 POP POP JUMP JUMPDEST PUSH1 0x0 PUSH2 0xF48 DUP3 PUSH2 0x9D0 JUMP JUMPDEST SWAP2 POP PUSH2 0xF53 DUP4 PUSH2 0x9D0 JUMP JUMPDEST SWAP3 POP DUP3 DUP3 LT ISZERO PUSH2 0xF66 JUMPI PUSH2 0xF65 PUSH2 0xEDD JUMP JUMPDEST JUMPDEST DUP3 DUP3 SUB SWAP1 POP SWAP3 SWAP2 POP POP JUMP JUMPDEST PUSH32 0x4E487B7100000000000000000000000000000000000000000000000000000000 PUSH1 0x0 MSTORE PUSH1 0x22 PUSH1 0x4 MSTORE PUSH1 0x24 PUSH1 0x0 REVERT JUMPDEST PUSH1 0x0 PUSH1 0x2 DUP3 DIV SWAP1 POP PUSH1 0x1 DUP3 AND DUP1 PUSH2 0xFB8 JUMPI PUSH1 0x7F DUP3 AND SWAP2 POP JUMPDEST PUSH1 0x20 DUP3 LT DUP2 EQ ISZERO PUSH2 0xFCC JUMPI PUSH2 0xFCB PUSH2 0xF71 JUMP JUMPDEST JUMPDEST POP SWAP2 SWAP1 POP JUMP JUMPDEST PUSH1 0x0 PUSH2 0xFDD DUP3 PUSH2 0x9D0 JUMP JUMPDEST SWAP2 POP PUSH32 0xFFFFFFFFFFFFFFFFFFFFFFFFFFFFFFFFFFFFFFFFFFFFFFFFFFFFFFFFFFFFFFFF DUP3 EQ ISZERO PUSH2 0x1010 JUMPI PUSH2 0x100F PUSH2 0xEDD JUMP JUMPDEST JUMPDEST PUSH1 0x1 DUP3 ADD SWAP1 POP SWAP2 SWAP1 POP JUMP JUMPDEST PUSH1 0x0 PUSH2 0x1026 DUP3 PUSH2 0x9D0 JUMP JUMPDEST SWAP2 POP PUSH2 0x1031 DUP4 PUSH2 0x9D0 JUMP JUMPDEST SWAP3 POP DUP3 PUSH32 0xFFFFFFFFFFFFFFFFFFFFFFFFFFFFFFFFFFFFFFFFFFFFFFFFFFFFFFFFFFFFFFFF SUB DUP3 GT ISZERO PUSH2 0x1066 JUMPI PUSH2 0x1065 PUSH2 0xEDD JUMP JUMPDEST JUMPDEST DUP3 DUP3 ADD SWAP1 POP SWAP3 SWAP2 POP POP JUMP INVALID LOG2 PUSH5 0x6970667358 0x22 SLT KECCAK256 OR PUSH25 0x11EB5F77EF7D8337243E97CAC626304A079D5E2140CA9DC27A 0xBF PUSH8 0x773C3464736F6C63 NUMBER STOP ADDMOD SIGNEXTEND STOP CALLER LOG2 PUSH5 0x6970667358 0x22 SLT KECCAK256 PUSH10 0x63646F65E7EEA4FEE544 0x4D 0xC0 GAS 0xBA DUP11 0xEA SWAP9 0xF6 PUSH29 0x3B77D803764AFECF0C0BA51A64736F6C634300080B0033000000000000 "},"gasEstimates":{"creation":{"codeDepositCost":"1146800","executionCost":"1194","totalCost":"1147994"},"external":{"createCampaign(uint256)":"infinite","deployedContracts(uint256)":"4956","getDeployedCampaigns()":"infinite"}},"methodIdentifiers":{"createCampaign(uint256)":"a3303a75","deployedContracts(uint256)":"9ad1ee10","getDeployedCampaigns()":"4acb9d4f"}},"storageLayout":{"storage":[{"astId":4,"contract":"Campaign.sol:CampaignFactory","label":"deployedContracts","offset":0,"slot":"0","type":"t_array(t_address)dyn_storage"}],"types":{"t_address":{"encoding":"inplace","label":"address","numberOfBytes":"20"},"t_array(t_address)dyn_storage":{"base":"t_address","encoding":"dynamic_array","label":"address[]","numberOfBytes":"32"}}},"userdoc":{"kind":"user","methods":{},"version":1}}